{
	"data": {
		"bytecode": {
			"linkReferences": {
				"remix_tests.sol": {
					"Assert": [
						{
							"length": 20,
							"start": 372
						},
						{
							"length": 20,
							"start": 552
						},
						{
							"length": 20,
							"start": 681
						},
						{
							"length": 20,
							"start": 805
						},
						{
							"length": 20,
							"start": 929
						},
						{
							"length": 20,
							"start": 1255
						},
						{
							"length": 20,
							"start": 1435
						},
						{
							"length": 20,
							"start": 1564
						},
						{
							"length": 20,
							"start": 1688
						},
						{
							"length": 20,
							"start": 1812
						},
						{
							"length": 20,
							"start": 2174
						},
						{
							"length": 20,
							"start": 2354
						},
						{
							"length": 20,
							"start": 2483
						},
						{
							"length": 20,
							"start": 2607
						},
						{
							"length": 20,
							"start": 2731
						},
						{
							"length": 20,
							"start": 3163
						},
						{
							"length": 20,
							"start": 3343
						},
						{
							"length": 20,
							"start": 3472
						},
						{
							"length": 20,
							"start": 3596
						},
						{
							"length": 20,
							"start": 3720
						}
					]
				}
			},
			"object": "608060405234801561001057600080fd5b5061236b806100206000396000f3fe608060405234801561001057600080fd5b50600436106100575760003560e01c80632ee079a91461005c57806373fb1a90146100665780637bbb8bd0146100705780637fea0d4b1461007a578063f979254a14610084575b600080fd5b61006461008e565b005b61006e610401565b005b610078610798565b005b610082610b0b565b005b61008c610b75565b005b60008054906101000a900473ffffffffffffffffffffffffffffffffffffffff1673ffffffffffffffffffffffffffffffffffffffff16638d65df2a600060056040518363ffffffff1660e01b81526004016100eb929190610fdf565b6060604051808303816000875af192505050801561012757506040513d601f19601f820116820180604052508101906101249190611043565b60015b610287576101336110a3565b806308c379a0036101d25750610147611136565b8061015257506101d4565b73__$acbfb1c35000d78352310b16a054a6b106$__6339df137f60006040518263ffffffff1660e01b815260040161018a919061123e565b602060405180830381865af41580156101a7573d6000803e3d6000fd5b505050506040513d601f19601f820116820180604052508101906101cb9190611298565b5050610282565b505b3d8060008114610200576040519150601f19603f3d011682016040523d82523d6000602084013e610205565b606091505b5073__$acbfb1c35000d78352310b16a054a6b106$__6339df137f60006040518263ffffffff1660e01b815260040161023e9190611311565b602060405180830381865af415801561025b573d6000803e3d6000fd5b505050506040513d601f19601f8201168201806040525081019061027f9190611298565b50505b6103ff565b73__$acbfb1c35000d78352310b16a054a6b106$__63abcd79608460056040518363ffffffff1660e01b81526004016102c19291906113a9565b602060405180830381865af41580156102de573d6000803e3d6000fd5b505050506040513d601f19601f820116820180604052508101906103029190611298565b5073__$acbfb1c35000d78352310b16a054a6b106$__63abcd79608360056040518363ffffffff1660e01b815260040161033d929190611431565b602060405180830381865af415801561035a573d6000803e3d6000fd5b505050506040513d601f19601f8201168201806040525081019061037e9190611298565b5073__$acbfb1c35000d78352310b16a054a6b106$__63abcd79608260056040518363ffffffff1660e01b81526004016103b9929190611431565b602060405180830381865af41580156103d6573d6000803e3d6000fd5b505050506040513d601f19601f820116820180604052508101906103fa9190611298565b505050505b565b60008054906101000a900473ffffffffffffffffffffffffffffffffffffffff1673ffffffffffffffffffffffffffffffffffffffff1663c332c3be600060036040518363ffffffff1660e01b815260040161045e9291906114a8565b6060604051808303816000875af192505050801561049a57506040513d601f19601f8201168201806040525081019061049791906114f6565b60015b6105fa576104a66110a3565b806308c379a00361054557506104ba611136565b806104c55750610547565b73__$acbfb1c35000d78352310b16a054a6b106$__6339df137f60006040518263ffffffff1660e01b81526004016104fd919061123e565b602060405180830381865af415801561051a573d6000803e3d6000fd5b505050506040513d601f19601f8201168201806040525081019061053e9190611298565b50506105f5565b505b3d8060008114610573576040519150601f19603f3d011682016040523d82523d6000602084013e610578565b606091505b5073__$acbfb1c35000d78352310b16a054a6b106$__6339df137f60006040518263ffffffff1660e01b81526004016105b19190611311565b602060405180830381865af41580156105ce573d6000803e3d6000fd5b505050506040513d601f19601f820116820180604052508101906105f29190611298565b50505b610796565b73__$acbfb1c35000d78352310b16a054a6b106$__63abcd79608360026040518363ffffffff1660e01b8152600401610634929190611584565b602060405180830381865af4158015610651573d6000803e3d6000fd5b505050506040513d601f19601f820116820180604052508101906106759190611298565b5073__$acbfb1c35000d78352310b16a054a6b106$__63abcd79608260036040518363ffffffff1660e01b81526004016106b092919061161b565b602060405180830381865af41580156106cd573d6000803e3d6000fd5b505050506040513d601f19601f820116820180604052508101906106f19190611298565b5073__$acbfb1c35000d78352310b16a054a6b106$__6339df137f600060048111156107205761071f610f19565b5b85600481111561073357610732610f19565b5b146040518263ffffffff1660e01b815260040161075091906116a3565b602060405180830381865af415801561076d573d6000803e3d6000fd5b505050506040513d601f19601f820116820180604052508101906107919190611298565b505050505b565b60008054906101000a900473ffffffffffffffffffffffffffffffffffffffff1673ffffffffffffffffffffffffffffffffffffffff16638d65df2a600060326040518363ffffffff1660e01b81526004016107f592919061170c565b6060604051808303816000875af192505050801561083157506040513d601f19601f8201168201806040525081019061082e9190611043565b60015b6109915761083d6110a3565b806308c379a0036108dc5750610851611136565b8061085c57506108de565b73__$acbfb1c35000d78352310b16a054a6b106$__6339df137f60006040518263ffffffff1660e01b8152600401610894919061123e565b602060405180830381865af41580156108b1573d6000803e3d6000fd5b505050506040513d601f19601f820116820180604052508101906108d59190611298565b505061098c565b505b3d806000811461090a576040519150601f19603f3d011682016040523d82523d6000602084013e61090f565b606091505b5073__$acbfb1c35000d78352310b16a054a6b106$__6339df137f60006040518263ffffffff1660e01b81526004016109489190611311565b602060405180830381865af4158015610965573d6000803e3d6000fd5b505050506040513d601f19601f820116820180604052508101906109899190611298565b50505b610b09565b73__$acbfb1c35000d78352310b16a054a6b106$__63abcd796084602a6040518363ffffffff1660e01b81526004016109cb929190611770565b602060405180830381865af41580156109e8573d6000803e3d6000fd5b505050506040513d601f19601f82011682018060405250810190610a0c9190611298565b5073__$acbfb1c35000d78352310b16a054a6b106$__63abcd796083602d6040518363ffffffff1660e01b8152600401610a47929190611833565b602060405180830381865af4158015610a64573d6000803e3d6000fd5b505050506040513d601f19601f82011682018060405250810190610a889190611298565b5073__$acbfb1c35000d78352310b16a054a6b106$__63abcd79608260286040518363ffffffff1660e01b8152600401610ac39291906118aa565b602060405180830381865af4158015610ae0573d6000803e3d6000fd5b505050506040513d601f19601f82011682018060405250810190610b049190611298565b505050505b565b604051610b1790610f0c565b604051809103906000f080158015610b33573d6000803e3d6000fd5b506000806101000a81548173ffffffffffffffffffffffffffffffffffffffff021916908373ffffffffffffffffffffffffffffffffffffffff160217905550565b60008054906101000a900473ffffffffffffffffffffffffffffffffffffffff1673ffffffffffffffffffffffffffffffffffffffff1663c332c3be600060046040518363ffffffff1660e01b8152600401610bd2929190611921565b6060604051808303816000875af1925050508015610c0e57506040513d601f19601f82011682018060405250810190610c0b91906114f6565b60015b610d6e57610c1a6110a3565b806308c379a003610cb95750610c2e611136565b80610c395750610cbb565b73__$acbfb1c35000d78352310b16a054a6b106$__6339df137f60006040518263ffffffff1660e01b8152600401610c71919061123e565b602060405180830381865af4158015610c8e573d6000803e3d6000fd5b505050506040513d601f19601f82011682018060405250810190610cb29190611298565b5050610d69565b505b3d8060008114610ce7576040519150601f19603f3d011682016040523d82523d6000602084013e610cec565b606091505b5073__$acbfb1c35000d78352310b16a054a6b106$__6339df137f60006040518263ffffffff1660e01b8152600401610d259190611311565b602060405180830381865af4158015610d42573d6000803e3d6000fd5b505050506040513d601f19601f82011682018060405250810190610d669190611298565b50505b610f0a565b73__$acbfb1c35000d78352310b16a054a6b106$__63abcd79608360026040518363ffffffff1660e01b8152600401610da8929190611584565b602060405180830381865af4158015610dc5573d6000803e3d6000fd5b505050506040513d601f19601f82011682018060405250810190610de99190611298565b5073__$acbfb1c35000d78352310b16a054a6b106$__63abcd79608260036040518363ffffffff1660e01b8152600401610e2492919061161b565b602060405180830381865af4158015610e41573d6000803e3d6000fd5b505050506040513d601f19601f82011682018060405250810190610e659190611298565b5073__$acbfb1c35000d78352310b16a054a6b106$__6339df137f60006004811115610e9457610e93610f19565b5b856004811115610ea757610ea6610f19565b5b146040518263ffffffff1660e01b8152600401610ec491906116a3565b602060405180830381865af4158015610ee1573d6000803e3d6000fd5b505050506040513d601f19601f82011682018060405250810190610f059190611298565b505050505b565b6109eb8061194b83390190565b7f4e487b7100000000000000000000000000000000000000000000000000000000600052602160045260246000fd5b60058110610f5957610f58610f19565b5b50565b6000819050610f6a82610f48565b919050565b6000610f7a82610f5c565b9050919050565b610f8a81610f6f565b82525050565b6000819050919050565b6000819050919050565b6000819050919050565b6000610fc9610fc4610fbf84610f90565b610fa4565b610f9a565b9050919050565b610fd981610fae565b82525050565b6000604082019050610ff46000830185610f81565b6110016020830184610fd0565b9392505050565b6000604051905090565b600080fd5b61102081610f9a565b811461102b57600080fd5b50565b60008151905061103d81611017565b92915050565b60008060006060848603121561105c5761105b611012565b5b600061106a8682870161102e565b935050602061107b8682870161102e565b925050604061108c8682870161102e565b9150509250925092565b60008160e01c9050919050565b600060033d11156110c25760046000803e6110bf600051611096565b90505b90565b6000601f19601f8301169050919050565b7f4e487b7100000000000000000000000000000000000000000000000000000000600052604160045260246000fd5b61110e826110c5565b810181811067ffffffffffffffff8211171561112d5761112c6110d6565b5b80604052505050565b600060443d106111c357611148611008565b60043d036004823e80513d602482011167ffffffffffffffff821117156111705750506111c3565b808201805167ffffffffffffffff81111561118e57505050506111c3565b80602083010160043d0385018111156111ab5750505050506111c3565b6111ba82602001850186611105565b82955050505050505b90565b60008115159050919050565b6111db816111c6565b82525050565b600082825260208201905092915050565b7f6661696c6564207769746820726561736f6e0000000000000000000000000000600082015250565b60006112286012836111e1565b9150611233826111f2565b602082019050919050565b600060408201905061125360008301846111d2565b81810360208301526112648161121b565b905092915050565b611275816111c6565b811461128057600080fd5b50565b6000815190506112928161126c565b92915050565b6000602082840312156112ae576112ad611012565b5b60006112bc84828501611283565b91505092915050565b7f6661696c656420756e6578706563746564000000000000000000000000000000600082015250565b60006112fb6011836111e1565b9150611306826112c5565b602082019050919050565b600060408201905061132660008301846111d2565b8181036020830152611337816112ee565b905092915050565b61134881610f9a565b82525050565b61135781610fae565b82525050565b7f6572726f722072656d61696e696e67204943455f544541000000000000000000600082015250565b60006113936017836111e1565b915061139e8261135d565b602082019050919050565b60006060820190506113be600083018561133f565b6113cb602083018461134e565b81810360408301526113dc81611386565b90509392505050565b7f6572726f72206164646564204943455f54454100000000000000000000000000600082015250565b600061141b6013836111e1565b9150611426826113e5565b602082019050919050565b6000606082019050611446600083018561133f565b611453602083018461134e565b81810360408301526114648161140e565b90509392505050565b6000819050919050565b600061149261148d6114888461146d565b610fa4565b610f9a565b9050919050565b6114a281611477565b82525050565b60006040820190506114bd6000830185610f81565b6114ca6020830184611499565b9392505050565b600581106114de57600080fd5b50565b6000815190506114f0816114d1565b92915050565b60008060006060848603121561150f5761150e611012565b5b600061151d868287016114e1565b935050602061152e8682870161102e565b925050604061153f8682870161102e565b9150509250925092565b6000819050919050565b600061156e61156961156484611549565b610fa4565b610f9a565b9050919050565b61157e81611553565b82525050565b6000606082019050611599600083018561133f565b6115a66020830184611575565b81810360408301526115b781611386565b90509392505050565b6115c981611477565b82525050565b7f6572726f7220676976656e204943455f54454100000000000000000000000000600082015250565b60006116056013836111e1565b9150611610826115cf565b602082019050919050565b6000606082019050611630600083018561133f565b61163d60208301846115c0565b818103604083015261164e816115f8565b90509392505050565b7f6572726f722072657475726e206d657400000000000000000000000000000000600082015250565b600061168d6010836111e1565b915061169882611657565b602082019050919050565b60006040820190506116b860008301846111d2565b81810360208301526116c981611680565b905092915050565b6000819050919050565b60006116f66116f16116ec846116d1565b610fa4565b610f9a565b9050919050565b611706816116db565b82525050565b60006040820190506117216000830185610f81565b61172e60208301846116fd565b9392505050565b6000819050919050565b600061175a61175561175084611735565b610fa4565b610f9a565b9050919050565b61176a8161173f565b82525050565b6000606082019050611785600083018561133f565b6117926020830184611761565b81810360408301526117a381611386565b90509392505050565b6000819050919050565b60006117d16117cc6117c7846117ac565b610fa4565b610f9a565b9050919050565b6117e1816117b6565b82525050565b7f6572726f722061646465645f746f74204943455f544541000000000000000000600082015250565b600061181d6017836111e1565b9150611828826117e7565b602082019050919050565b6000606082019050611848600083018561133f565b61185560208301846117d8565b818103604083015261186681611810565b90509392505050565b6000819050919050565b600061189461188f61188a8461186f565b610fa4565b610f9a565b9050919050565b6118a481611879565b82525050565b60006060820190506118bf600083018561133f565b6118cc602083018461189b565b81810360408301526118dd8161140e565b90509392505050565b6000819050919050565b600061190b611906611901846118e6565b610fa4565b610f9a565b9050919050565b61191b816118f0565b82525050565b60006040820190506119366000830185610f81565b6119436020830184611912565b939250505056fe608060405234801561001057600080fd5b506109cb806100206000396000f3fe608060405234801561001057600080fd5b50600436106100575760003560e01c80638d65df2a1461005c578063ad940f001461008e578063c332c3be146100be578063c79cf758146100f0578063fa66c1ba14610120575b600080fd5b61007660048036038101906100719190610782565b610150565b604051610085939291906107d1565b60405180910390f35b6100a860048036038101906100a39190610808565b610436565b6040516100b59190610835565b60405180910390f35b6100d860048036038101906100d39190610782565b61044e565b6040516100e7939291906108c7565b60405180910390f35b61010a60048036038101906101059190610808565b6106f2565b6040516101179190610835565b60405180910390f35b61013a60048036038101906101359190610808565b61070a565b6040516101479190610835565b60405180910390f35b600080600080602a8560008089600481111561016f5761016e610850565b5b600481111561018157610180610850565b5b81526020019081526020016000205461019a919061092d565b11156102ba57602a856000808960048111156101b9576101b8610850565b5b60048111156101cb576101ca610850565b5b8152602001908152602001600020546101e4919061092d565b6101ee9190610961565b856101f99190610961565b9050806002600088600481111561021357610212610850565b5b600481111561022557610224610850565b5b81526020019081526020016000205461023e919061092d565b6002600088600481111561025557610254610850565b5b600481111561026757610266610850565b5b815260200190815260200160002081905550602a60008088600481111561029157610290610850565b5b60048111156102a3576102a2610850565b5b8152602001908152602001600020819055506103b8565b849050846000808860048111156102d4576102d3610850565b5b60048111156102e6576102e5610850565b5b8152602001908152602001600020546102ff919061092d565b60008088600481111561031557610314610850565b5b600481111561032757610326610850565b5b815260200190815260200160002081905550846002600088600481111561035157610350610850565b5b600481111561036357610362610850565b5b81526020019081526020016000205461037c919061092d565b6002600088600481111561039357610392610850565b5b60048111156103a5576103a4610850565b5b8152602001908152602001600020819055505b6000808760048111156103ce576103cd610850565b5b60048111156103e0576103df610850565b5b8152602001908152602001600020546002600088600481111561040657610405610850565b5b600481111561041857610417610850565b5b81526020019081526020016000205482935093509350509250925092565b60016020528060005260406000206000915090505481565b60008060008360008087600481111561046a57610469610850565b5b600481111561047c5761047b610850565b5b815260200190815260200160002054101561057a576000808660048111156104a7576104a6610850565b5b60048111156104b9576104b8610850565b5b8152602001908152602001600020546000808760048111156104de576104dd610850565b5b60048111156104f0576104ef610850565b5b8152602001908152602001600020819055506001600086600481111561051957610518610850565b5b600481111561052b5761052a610850565b5b8152602001908152602001600020546001600087600481111561055157610550610850565b5b600481111561056357610562610850565b5b815260200190815260200160002081905550610675565b8360008087600481111561059157610590610850565b5b60048111156105a3576105a2610850565b5b8152602001908152602001600020546105bc9190610961565b6000808760048111156105d2576105d1610850565b5b60048111156105e4576105e3610850565b5b815260200190815260200160002081905550836001600087600481111561060e5761060d610850565b5b60048111156106205761061f610850565b5b815260200190815260200160002054610639919061092d565b600160008760048111156106505761064f610850565b5b600481111561066257610661610850565b5b8152602001908152602001600020819055505b8460008087600481111561068c5761068b610850565b5b600481111561069e5761069d610850565b5b815260200190815260200160002054600160008860048111156106c4576106c3610850565b5b60048111156106d6576106d5610850565b5b8152602001908152602001600020549250925092509250925092565b60006020528060005260406000206000915090505481565b60026020528060005260406000206000915090505481565b600080fd5b6005811061073457600080fd5b50565b60008135905061074681610727565b92915050565b6000819050919050565b61075f8161074c565b811461076a57600080fd5b50565b60008135905061077c81610756565b92915050565b6000806040838503121561079957610798610722565b5b60006107a785828601610737565b92505060206107b88582860161076d565b9150509250929050565b6107cb8161074c565b82525050565b60006060820190506107e660008301866107c2565b6107f360208301856107c2565b61080060408301846107c2565b949350505050565b60006020828403121561081e5761081d610722565b5b600061082c84828501610737565b91505092915050565b600060208201905061084a60008301846107c2565b92915050565b7f4e487b7100000000000000000000000000000000000000000000000000000000600052602160045260246000fd5b600581106108905761088f610850565b5b50565b60008190506108a18261087f565b919050565b60006108b182610893565b9050919050565b6108c1816108a6565b82525050565b60006060820190506108dc60008301866108b8565b6108e960208301856107c2565b6108f660408301846107c2565b949350505050565b7f4e487b7100000000000000000000000000000000000000000000000000000000600052601160045260246000fd5b60006109388261074c565b91506109438361074c565b925082820190508082111561095b5761095a6108fe565b5b92915050565b600061096c8261074c565b91506109778361074c565b925082820390508181111561098f5761098e6108fe565b5b9291505056fea26469706673582212209ddf2bad3d924f583e52e5fd5cd936a61a6ff1f3fcb2bde33d74bfc7938d181d64736f6c63430008100033a264697066735822122048969eb6c0e083558d2c82da87eb9ba00771249e35833a545b37c92db296fed464736f6c63430008100033",
			"opcodes": "PUSH1 0x80 PUSH1 0x40 MSTORE CALLVALUE DUP1 ISZERO PUSH2 0x10 JUMPI PUSH1 0x0 DUP1 REVERT JUMPDEST POP PUSH2 0x236B DUP1 PUSH2 0x20 PUSH1 0x0 CODECOPY PUSH1 0x0 RETURN INVALID PUSH1 0x80 PUSH1 0x40 MSTORE CALLVALUE DUP1 ISZERO PUSH2 0x10 JUMPI PUSH1 0x0 DUP1 REVERT JUMPDEST POP PUSH1 0x4 CALLDATASIZE LT PUSH2 0x57 JUMPI PUSH1 0x0 CALLDATALOAD PUSH1 0xE0 SHR DUP1 PUSH4 0x2EE079A9 EQ PUSH2 0x5C JUMPI DUP1 PUSH4 0x73FB1A90 EQ PUSH2 0x66 JUMPI DUP1 PUSH4 0x7BBB8BD0 EQ PUSH2 0x70 JUMPI DUP1 PUSH4 0x7FEA0D4B EQ PUSH2 0x7A JUMPI DUP1 PUSH4 0xF979254A EQ PUSH2 0x84 JUMPI JUMPDEST PUSH1 0x0 DUP1 REVERT JUMPDEST PUSH2 0x64 PUSH2 0x8E JUMP JUMPDEST STOP JUMPDEST PUSH2 0x6E PUSH2 0x401 JUMP JUMPDEST STOP JUMPDEST PUSH2 0x78 PUSH2 0x798 JUMP JUMPDEST STOP JUMPDEST PUSH2 0x82 PUSH2 0xB0B JUMP JUMPDEST STOP JUMPDEST PUSH2 0x8C PUSH2 0xB75 JUMP JUMPDEST STOP JUMPDEST PUSH1 0x0 DUP1 SLOAD SWAP1 PUSH2 0x100 EXP SWAP1 DIV PUSH20 0xFFFFFFFFFFFFFFFFFFFFFFFFFFFFFFFFFFFFFFFF AND PUSH20 0xFFFFFFFFFFFFFFFFFFFFFFFFFFFFFFFFFFFFFFFF AND PUSH4 0x8D65DF2A PUSH1 0x0 PUSH1 0x5 PUSH1 0x40 MLOAD DUP4 PUSH4 0xFFFFFFFF AND PUSH1 0xE0 SHL DUP2 MSTORE PUSH1 0x4 ADD PUSH2 0xEB SWAP3 SWAP2 SWAP1 PUSH2 0xFDF JUMP JUMPDEST PUSH1 0x60 PUSH1 0x40 MLOAD DUP1 DUP4 SUB DUP2 PUSH1 0x0 DUP8 GAS CALL SWAP3 POP POP POP DUP1 ISZERO PUSH2 0x127 JUMPI POP PUSH1 0x40 MLOAD RETURNDATASIZE PUSH1 0x1F NOT PUSH1 0x1F DUP3 ADD AND DUP3 ADD DUP1 PUSH1 0x40 MSTORE POP DUP2 ADD SWAP1 PUSH2 0x124 SWAP2 SWAP1 PUSH2 0x1043 JUMP JUMPDEST PUSH1 0x1 JUMPDEST PUSH2 0x287 JUMPI PUSH2 0x133 PUSH2 0x10A3 JUMP JUMPDEST DUP1 PUSH4 0x8C379A0 SUB PUSH2 0x1D2 JUMPI POP PUSH2 0x147 PUSH2 0x1136 JUMP JUMPDEST DUP1 PUSH2 0x152 JUMPI POP PUSH2 0x1D4 JUMP JUMPDEST PUSH20 0x0 PUSH4 0x39DF137F PUSH1 0x0 PUSH1 0x40 MLOAD DUP3 PUSH4 0xFFFFFFFF AND PUSH1 0xE0 SHL DUP2 MSTORE PUSH1 0x4 ADD PUSH2 0x18A SWAP2 SWAP1 PUSH2 0x123E JUMP JUMPDEST PUSH1 0x20 PUSH1 0x40 MLOAD DUP1 DUP4 SUB DUP2 DUP7 GAS DELEGATECALL ISZERO DUP1 ISZERO PUSH2 0x1A7 JUMPI RETURNDATASIZE PUSH1 0x0 DUP1 RETURNDATACOPY RETURNDATASIZE PUSH1 0x0 REVERT JUMPDEST POP POP POP POP PUSH1 0x40 MLOAD RETURNDATASIZE PUSH1 0x1F NOT PUSH1 0x1F DUP3 ADD AND DUP3 ADD DUP1 PUSH1 0x40 MSTORE POP DUP2 ADD SWAP1 PUSH2 0x1CB SWAP2 SWAP1 PUSH2 0x1298 JUMP JUMPDEST POP POP PUSH2 0x282 JUMP JUMPDEST POP JUMPDEST RETURNDATASIZE DUP1 PUSH1 0x0 DUP2 EQ PUSH2 0x200 JUMPI PUSH1 0x40 MLOAD SWAP2 POP PUSH1 0x1F NOT PUSH1 0x3F RETURNDATASIZE ADD AND DUP3 ADD PUSH1 0x40 MSTORE RETURNDATASIZE DUP3 MSTORE RETURNDATASIZE PUSH1 0x0 PUSH1 0x20 DUP5 ADD RETURNDATACOPY PUSH2 0x205 JUMP JUMPDEST PUSH1 0x60 SWAP2 POP JUMPDEST POP PUSH20 0x0 PUSH4 0x39DF137F PUSH1 0x0 PUSH1 0x40 MLOAD DUP3 PUSH4 0xFFFFFFFF AND PUSH1 0xE0 SHL DUP2 MSTORE PUSH1 0x4 ADD PUSH2 0x23E SWAP2 SWAP1 PUSH2 0x1311 JUMP JUMPDEST PUSH1 0x20 PUSH1 0x40 MLOAD DUP1 DUP4 SUB DUP2 DUP7 GAS DELEGATECALL ISZERO DUP1 ISZERO PUSH2 0x25B JUMPI RETURNDATASIZE PUSH1 0x0 DUP1 RETURNDATACOPY RETURNDATASIZE PUSH1 0x0 REVERT JUMPDEST POP POP POP POP PUSH1 0x40 MLOAD RETURNDATASIZE PUSH1 0x1F NOT PUSH1 0x1F DUP3 ADD AND DUP3 ADD DUP1 PUSH1 0x40 MSTORE POP DUP2 ADD SWAP1 PUSH2 0x27F SWAP2 SWAP1 PUSH2 0x1298 JUMP JUMPDEST POP POP JUMPDEST PUSH2 0x3FF JUMP JUMPDEST PUSH20 0x0 PUSH4 0xABCD7960 DUP5 PUSH1 0x5 PUSH1 0x40 MLOAD DUP4 PUSH4 0xFFFFFFFF AND PUSH1 0xE0 SHL DUP2 MSTORE PUSH1 0x4 ADD PUSH2 0x2C1 SWAP3 SWAP2 SWAP1 PUSH2 0x13A9 JUMP JUMPDEST PUSH1 0x20 PUSH1 0x40 MLOAD DUP1 DUP4 SUB DUP2 DUP7 GAS DELEGATECALL ISZERO DUP1 ISZERO PUSH2 0x2DE JUMPI RETURNDATASIZE PUSH1 0x0 DUP1 RETURNDATACOPY RETURNDATASIZE PUSH1 0x0 REVERT JUMPDEST POP POP POP POP PUSH1 0x40 MLOAD RETURNDATASIZE PUSH1 0x1F NOT PUSH1 0x1F DUP3 ADD AND DUP3 ADD DUP1 PUSH1 0x40 MSTORE POP DUP2 ADD SWAP1 PUSH2 0x302 SWAP2 SWAP1 PUSH2 0x1298 JUMP JUMPDEST POP PUSH20 0x0 PUSH4 0xABCD7960 DUP4 PUSH1 0x5 PUSH1 0x40 MLOAD DUP4 PUSH4 0xFFFFFFFF AND PUSH1 0xE0 SHL DUP2 MSTORE PUSH1 0x4 ADD PUSH2 0x33D SWAP3 SWAP2 SWAP1 PUSH2 0x1431 JUMP JUMPDEST PUSH1 0x20 PUSH1 0x40 MLOAD DUP1 DUP4 SUB DUP2 DUP7 GAS DELEGATECALL ISZERO DUP1 ISZERO PUSH2 0x35A JUMPI RETURNDATASIZE PUSH1 0x0 DUP1 RETURNDATACOPY RETURNDATASIZE PUSH1 0x0 REVERT JUMPDEST POP POP POP POP PUSH1 0x40 MLOAD RETURNDATASIZE PUSH1 0x1F NOT PUSH1 0x1F DUP3 ADD AND DUP3 ADD DUP1 PUSH1 0x40 MSTORE POP DUP2 ADD SWAP1 PUSH2 0x37E SWAP2 SWAP1 PUSH2 0x1298 JUMP JUMPDEST POP PUSH20 0x0 PUSH4 0xABCD7960 DUP3 PUSH1 0x5 PUSH1 0x40 MLOAD DUP4 PUSH4 0xFFFFFFFF AND PUSH1 0xE0 SHL DUP2 MSTORE PUSH1 0x4 ADD PUSH2 0x3B9 SWAP3 SWAP2 SWAP1 PUSH2 0x1431 JUMP JUMPDEST PUSH1 0x20 PUSH1 0x40 MLOAD DUP1 DUP4 SUB DUP2 DUP7 GAS DELEGATECALL ISZERO DUP1 ISZERO PUSH2 0x3D6 JUMPI RETURNDATASIZE PUSH1 0x0 DUP1 RETURNDATACOPY RETURNDATASIZE PUSH1 0x0 REVERT JUMPDEST POP POP POP POP PUSH1 0x40 MLOAD RETURNDATASIZE PUSH1 0x1F NOT PUSH1 0x1F DUP3 ADD AND DUP3 ADD DUP1 PUSH1 0x40 MSTORE POP DUP2 ADD SWAP1 PUSH2 0x3FA SWAP2 SWAP1 PUSH2 0x1298 JUMP JUMPDEST POP POP POP POP JUMPDEST JUMP JUMPDEST PUSH1 0x0 DUP1 SLOAD SWAP1 PUSH2 0x100 EXP SWAP1 DIV PUSH20 0xFFFFFFFFFFFFFFFFFFFFFFFFFFFFFFFFFFFFFFFF AND PUSH20 0xFFFFFFFFFFFFFFFFFFFFFFFFFFFFFFFFFFFFFFFF AND PUSH4 0xC332C3BE PUSH1 0x0 PUSH1 0x3 PUSH1 0x40 MLOAD DUP4 PUSH4 0xFFFFFFFF AND PUSH1 0xE0 SHL DUP2 MSTORE PUSH1 0x4 ADD PUSH2 0x45E SWAP3 SWAP2 SWAP1 PUSH2 0x14A8 JUMP JUMPDEST PUSH1 0x60 PUSH1 0x40 MLOAD DUP1 DUP4 SUB DUP2 PUSH1 0x0 DUP8 GAS CALL SWAP3 POP POP POP DUP1 ISZERO PUSH2 0x49A JUMPI POP PUSH1 0x40 MLOAD RETURNDATASIZE PUSH1 0x1F NOT PUSH1 0x1F DUP3 ADD AND DUP3 ADD DUP1 PUSH1 0x40 MSTORE POP DUP2 ADD SWAP1 PUSH2 0x497 SWAP2 SWAP1 PUSH2 0x14F6 JUMP JUMPDEST PUSH1 0x1 JUMPDEST PUSH2 0x5FA JUMPI PUSH2 0x4A6 PUSH2 0x10A3 JUMP JUMPDEST DUP1 PUSH4 0x8C379A0 SUB PUSH2 0x545 JUMPI POP PUSH2 0x4BA PUSH2 0x1136 JUMP JUMPDEST DUP1 PUSH2 0x4C5 JUMPI POP PUSH2 0x547 JUMP JUMPDEST PUSH20 0x0 PUSH4 0x39DF137F PUSH1 0x0 PUSH1 0x40 MLOAD DUP3 PUSH4 0xFFFFFFFF AND PUSH1 0xE0 SHL DUP2 MSTORE PUSH1 0x4 ADD PUSH2 0x4FD SWAP2 SWAP1 PUSH2 0x123E JUMP JUMPDEST PUSH1 0x20 PUSH1 0x40 MLOAD DUP1 DUP4 SUB DUP2 DUP7 GAS DELEGATECALL ISZERO DUP1 ISZERO PUSH2 0x51A JUMPI RETURNDATASIZE PUSH1 0x0 DUP1 RETURNDATACOPY RETURNDATASIZE PUSH1 0x0 REVERT JUMPDEST POP POP POP POP PUSH1 0x40 MLOAD RETURNDATASIZE PUSH1 0x1F NOT PUSH1 0x1F DUP3 ADD AND DUP3 ADD DUP1 PUSH1 0x40 MSTORE POP DUP2 ADD SWAP1 PUSH2 0x53E SWAP2 SWAP1 PUSH2 0x1298 JUMP JUMPDEST POP POP PUSH2 0x5F5 JUMP JUMPDEST POP JUMPDEST RETURNDATASIZE DUP1 PUSH1 0x0 DUP2 EQ PUSH2 0x573 JUMPI PUSH1 0x40 MLOAD SWAP2 POP PUSH1 0x1F NOT PUSH1 0x3F RETURNDATASIZE ADD AND DUP3 ADD PUSH1 0x40 MSTORE RETURNDATASIZE DUP3 MSTORE RETURNDATASIZE PUSH1 0x0 PUSH1 0x20 DUP5 ADD RETURNDATACOPY PUSH2 0x578 JUMP JUMPDEST PUSH1 0x60 SWAP2 POP JUMPDEST POP PUSH20 0x0 PUSH4 0x39DF137F PUSH1 0x0 PUSH1 0x40 MLOAD DUP3 PUSH4 0xFFFFFFFF AND PUSH1 0xE0 SHL DUP2 MSTORE PUSH1 0x4 ADD PUSH2 0x5B1 SWAP2 SWAP1 PUSH2 0x1311 JUMP JUMPDEST PUSH1 0x20 PUSH1 0x40 MLOAD DUP1 DUP4 SUB DUP2 DUP7 GAS DELEGATECALL ISZERO DUP1 ISZERO PUSH2 0x5CE JUMPI RETURNDATASIZE PUSH1 0x0 DUP1 RETURNDATACOPY RETURNDATASIZE PUSH1 0x0 REVERT JUMPDEST POP POP POP POP PUSH1 0x40 MLOAD RETURNDATASIZE PUSH1 0x1F NOT PUSH1 0x1F DUP3 ADD AND DUP3 ADD DUP1 PUSH1 0x40 MSTORE POP DUP2 ADD SWAP1 PUSH2 0x5F2 SWAP2 SWAP1 PUSH2 0x1298 JUMP JUMPDEST POP POP JUMPDEST PUSH2 0x796 JUMP JUMPDEST PUSH20 0x0 PUSH4 0xABCD7960 DUP4 PUSH1 0x2 PUSH1 0x40 MLOAD DUP4 PUSH4 0xFFFFFFFF AND PUSH1 0xE0 SHL DUP2 MSTORE PUSH1 0x4 ADD PUSH2 0x634 SWAP3 SWAP2 SWAP1 PUSH2 0x1584 JUMP JUMPDEST PUSH1 0x20 PUSH1 0x40 MLOAD DUP1 DUP4 SUB DUP2 DUP7 GAS DELEGATECALL ISZERO DUP1 ISZERO PUSH2 0x651 JUMPI RETURNDATASIZE PUSH1 0x0 DUP1 RETURNDATACOPY RETURNDATASIZE PUSH1 0x0 REVERT JUMPDEST POP POP POP POP PUSH1 0x40 MLOAD RETURNDATASIZE PUSH1 0x1F NOT PUSH1 0x1F DUP3 ADD AND DUP3 ADD DUP1 PUSH1 0x40 MSTORE POP DUP2 ADD SWAP1 PUSH2 0x675 SWAP2 SWAP1 PUSH2 0x1298 JUMP JUMPDEST POP PUSH20 0x0 PUSH4 0xABCD7960 DUP3 PUSH1 0x3 PUSH1 0x40 MLOAD DUP4 PUSH4 0xFFFFFFFF AND PUSH1 0xE0 SHL DUP2 MSTORE PUSH1 0x4 ADD PUSH2 0x6B0 SWAP3 SWAP2 SWAP1 PUSH2 0x161B JUMP JUMPDEST PUSH1 0x20 PUSH1 0x40 MLOAD DUP1 DUP4 SUB DUP2 DUP7 GAS DELEGATECALL ISZERO DUP1 ISZERO PUSH2 0x6CD JUMPI RETURNDATASIZE PUSH1 0x0 DUP1 RETURNDATACOPY RETURNDATASIZE PUSH1 0x0 REVERT JUMPDEST POP POP POP POP PUSH1 0x40 MLOAD RETURNDATASIZE PUSH1 0x1F NOT PUSH1 0x1F DUP3 ADD AND DUP3 ADD DUP1 PUSH1 0x40 MSTORE POP DUP2 ADD SWAP1 PUSH2 0x6F1 SWAP2 SWAP1 PUSH2 0x1298 JUMP JUMPDEST POP PUSH20 0x0 PUSH4 0x39DF137F PUSH1 0x0 PUSH1 0x4 DUP2 GT ISZERO PUSH2 0x720 JUMPI PUSH2 0x71F PUSH2 0xF19 JUMP JUMPDEST JUMPDEST DUP6 PUSH1 0x4 DUP2 GT ISZERO PUSH2 0x733 JUMPI PUSH2 0x732 PUSH2 0xF19 JUMP JUMPDEST JUMPDEST EQ PUSH1 0x40 MLOAD DUP3 PUSH4 0xFFFFFFFF AND PUSH1 0xE0 SHL DUP2 MSTORE PUSH1 0x4 ADD PUSH2 0x750 SWAP2 SWAP1 PUSH2 0x16A3 JUMP JUMPDEST PUSH1 0x20 PUSH1 0x40 MLOAD DUP1 DUP4 SUB DUP2 DUP7 GAS DELEGATECALL ISZERO DUP1 ISZERO PUSH2 0x76D JUMPI RETURNDATASIZE PUSH1 0x0 DUP1 RETURNDATACOPY RETURNDATASIZE PUSH1 0x0 REVERT JUMPDEST POP POP POP POP PUSH1 0x40 MLOAD RETURNDATASIZE PUSH1 0x1F NOT PUSH1 0x1F DUP3 ADD AND DUP3 ADD DUP1 PUSH1 0x40 MSTORE POP DUP2 ADD SWAP1 PUSH2 0x791 SWAP2 SWAP1 PUSH2 0x1298 JUMP JUMPDEST POP POP POP POP JUMPDEST JUMP JUMPDEST PUSH1 0x0 DUP1 SLOAD SWAP1 PUSH2 0x100 EXP SWAP1 DIV PUSH20 0xFFFFFFFFFFFFFFFFFFFFFFFFFFFFFFFFFFFFFFFF AND PUSH20 0xFFFFFFFFFFFFFFFFFFFFFFFFFFFFFFFFFFFFFFFF AND PUSH4 0x8D65DF2A PUSH1 0x0 PUSH1 0x32 PUSH1 0x40 MLOAD DUP4 PUSH4 0xFFFFFFFF AND PUSH1 0xE0 SHL DUP2 MSTORE PUSH1 0x4 ADD PUSH2 0x7F5 SWAP3 SWAP2 SWAP1 PUSH2 0x170C JUMP JUMPDEST PUSH1 0x60 PUSH1 0x40 MLOAD DUP1 DUP4 SUB DUP2 PUSH1 0x0 DUP8 GAS CALL SWAP3 POP POP POP DUP1 ISZERO PUSH2 0x831 JUMPI POP PUSH1 0x40 MLOAD RETURNDATASIZE PUSH1 0x1F NOT PUSH1 0x1F DUP3 ADD AND DUP3 ADD DUP1 PUSH1 0x40 MSTORE POP DUP2 ADD SWAP1 PUSH2 0x82E SWAP2 SWAP1 PUSH2 0x1043 JUMP JUMPDEST PUSH1 0x1 JUMPDEST PUSH2 0x991 JUMPI PUSH2 0x83D PUSH2 0x10A3 JUMP JUMPDEST DUP1 PUSH4 0x8C379A0 SUB PUSH2 0x8DC JUMPI POP PUSH2 0x851 PUSH2 0x1136 JUMP JUMPDEST DUP1 PUSH2 0x85C JUMPI POP PUSH2 0x8DE JUMP JUMPDEST PUSH20 0x0 PUSH4 0x39DF137F PUSH1 0x0 PUSH1 0x40 MLOAD DUP3 PUSH4 0xFFFFFFFF AND PUSH1 0xE0 SHL DUP2 MSTORE PUSH1 0x4 ADD PUSH2 0x894 SWAP2 SWAP1 PUSH2 0x123E JUMP JUMPDEST PUSH1 0x20 PUSH1 0x40 MLOAD DUP1 DUP4 SUB DUP2 DUP7 GAS DELEGATECALL ISZERO DUP1 ISZERO PUSH2 0x8B1 JUMPI RETURNDATASIZE PUSH1 0x0 DUP1 RETURNDATACOPY RETURNDATASIZE PUSH1 0x0 REVERT JUMPDEST POP POP POP POP PUSH1 0x40 MLOAD RETURNDATASIZE PUSH1 0x1F NOT PUSH1 0x1F DUP3 ADD AND DUP3 ADD DUP1 PUSH1 0x40 MSTORE POP DUP2 ADD SWAP1 PUSH2 0x8D5 SWAP2 SWAP1 PUSH2 0x1298 JUMP JUMPDEST POP POP PUSH2 0x98C JUMP JUMPDEST POP JUMPDEST RETURNDATASIZE DUP1 PUSH1 0x0 DUP2 EQ PUSH2 0x90A JUMPI PUSH1 0x40 MLOAD SWAP2 POP PUSH1 0x1F NOT PUSH1 0x3F RETURNDATASIZE ADD AND DUP3 ADD PUSH1 0x40 MSTORE RETURNDATASIZE DUP3 MSTORE RETURNDATASIZE PUSH1 0x0 PUSH1 0x20 DUP5 ADD RETURNDATACOPY PUSH2 0x90F JUMP JUMPDEST PUSH1 0x60 SWAP2 POP JUMPDEST POP PUSH20 0x0 PUSH4 0x39DF137F PUSH1 0x0 PUSH1 0x40 MLOAD DUP3 PUSH4 0xFFFFFFFF AND PUSH1 0xE0 SHL DUP2 MSTORE PUSH1 0x4 ADD PUSH2 0x948 SWAP2 SWAP1 PUSH2 0x1311 JUMP JUMPDEST PUSH1 0x20 PUSH1 0x40 MLOAD DUP1 DUP4 SUB DUP2 DUP7 GAS DELEGATECALL ISZERO DUP1 ISZERO PUSH2 0x965 JUMPI RETURNDATASIZE PUSH1 0x0 DUP1 RETURNDATACOPY RETURNDATASIZE PUSH1 0x0 REVERT JUMPDEST POP POP POP POP PUSH1 0x40 MLOAD RETURNDATASIZE PUSH1 0x1F NOT PUSH1 0x1F DUP3 ADD AND DUP3 ADD DUP1 PUSH1 0x40 MSTORE POP DUP2 ADD SWAP1 PUSH2 0x989 SWAP2 SWAP1 PUSH2 0x1298 JUMP JUMPDEST POP POP JUMPDEST PUSH2 0xB09 JUMP JUMPDEST PUSH20 0x0 PUSH4 0xABCD7960 DUP5 PUSH1 0x2A PUSH1 0x40 MLOAD DUP4 PUSH4 0xFFFFFFFF AND PUSH1 0xE0 SHL DUP2 MSTORE PUSH1 0x4 ADD PUSH2 0x9CB SWAP3 SWAP2 SWAP1 PUSH2 0x1770 JUMP JUMPDEST PUSH1 0x20 PUSH1 0x40 MLOAD DUP1 DUP4 SUB DUP2 DUP7 GAS DELEGATECALL ISZERO DUP1 ISZERO PUSH2 0x9E8 JUMPI RETURNDATASIZE PUSH1 0x0 DUP1 RETURNDATACOPY RETURNDATASIZE PUSH1 0x0 REVERT JUMPDEST POP POP POP POP PUSH1 0x40 MLOAD RETURNDATASIZE PUSH1 0x1F NOT PUSH1 0x1F DUP3 ADD AND DUP3 ADD DUP1 PUSH1 0x40 MSTORE POP DUP2 ADD SWAP1 PUSH2 0xA0C SWAP2 SWAP1 PUSH2 0x1298 JUMP JUMPDEST POP PUSH20 0x0 PUSH4 0xABCD7960 DUP4 PUSH1 0x2D PUSH1 0x40 MLOAD DUP4 PUSH4 0xFFFFFFFF AND PUSH1 0xE0 SHL DUP2 MSTORE PUSH1 0x4 ADD PUSH2 0xA47 SWAP3 SWAP2 SWAP1 PUSH2 0x1833 JUMP JUMPDEST PUSH1 0x20 PUSH1 0x40 MLOAD DUP1 DUP4 SUB DUP2 DUP7 GAS DELEGATECALL ISZERO DUP1 ISZERO PUSH2 0xA64 JUMPI RETURNDATASIZE PUSH1 0x0 DUP1 RETURNDATACOPY RETURNDATASIZE PUSH1 0x0 REVERT JUMPDEST POP POP POP POP PUSH1 0x40 MLOAD RETURNDATASIZE PUSH1 0x1F NOT PUSH1 0x1F DUP3 ADD AND DUP3 ADD DUP1 PUSH1 0x40 MSTORE POP DUP2 ADD SWAP1 PUSH2 0xA88 SWAP2 SWAP1 PUSH2 0x1298 JUMP JUMPDEST POP PUSH20 0x0 PUSH4 0xABCD7960 DUP3 PUSH1 0x28 PUSH1 0x40 MLOAD DUP4 PUSH4 0xFFFFFFFF AND PUSH1 0xE0 SHL DUP2 MSTORE PUSH1 0x4 ADD PUSH2 0xAC3 SWAP3 SWAP2 SWAP1 PUSH2 0x18AA JUMP JUMPDEST PUSH1 0x20 PUSH1 0x40 MLOAD DUP1 DUP4 SUB DUP2 DUP7 GAS DELEGATECALL ISZERO DUP1 ISZERO PUSH2 0xAE0 JUMPI RETURNDATASIZE PUSH1 0x0 DUP1 RETURNDATACOPY RETURNDATASIZE PUSH1 0x0 REVERT JUMPDEST POP POP POP POP PUSH1 0x40 MLOAD RETURNDATASIZE PUSH1 0x1F NOT PUSH1 0x1F DUP3 ADD AND DUP3 ADD DUP1 PUSH1 0x40 MSTORE POP DUP2 ADD SWAP1 PUSH2 0xB04 SWAP2 SWAP1 PUSH2 0x1298 JUMP JUMPDEST POP POP POP POP JUMPDEST JUMP JUMPDEST PUSH1 0x40 MLOAD PUSH2 0xB17 SWAP1 PUSH2 0xF0C JUMP JUMPDEST PUSH1 0x40 MLOAD DUP1 SWAP2 SUB SWAP1 PUSH1 0x0 CREATE DUP1 ISZERO DUP1 ISZERO PUSH2 0xB33 JUMPI RETURNDATASIZE PUSH1 0x0 DUP1 RETURNDATACOPY RETURNDATASIZE PUSH1 0x0 REVERT JUMPDEST POP PUSH1 0x0 DUP1 PUSH2 0x100 EXP DUP2 SLOAD DUP2 PUSH20 0xFFFFFFFFFFFFFFFFFFFFFFFFFFFFFFFFFFFFFFFF MUL NOT AND SWAP1 DUP4 PUSH20 0xFFFFFFFFFFFFFFFFFFFFFFFFFFFFFFFFFFFFFFFF AND MUL OR SWAP1 SSTORE POP JUMP JUMPDEST PUSH1 0x0 DUP1 SLOAD SWAP1 PUSH2 0x100 EXP SWAP1 DIV PUSH20 0xFFFFFFFFFFFFFFFFFFFFFFFFFFFFFFFFFFFFFFFF AND PUSH20 0xFFFFFFFFFFFFFFFFFFFFFFFFFFFFFFFFFFFFFFFF AND PUSH4 0xC332C3BE PUSH1 0x0 PUSH1 0x4 PUSH1 0x40 MLOAD DUP4 PUSH4 0xFFFFFFFF AND PUSH1 0xE0 SHL DUP2 MSTORE PUSH1 0x4 ADD PUSH2 0xBD2 SWAP3 SWAP2 SWAP1 PUSH2 0x1921 JUMP JUMPDEST PUSH1 0x60 PUSH1 0x40 MLOAD DUP1 DUP4 SUB DUP2 PUSH1 0x0 DUP8 GAS CALL SWAP3 POP POP POP DUP1 ISZERO PUSH2 0xC0E JUMPI POP PUSH1 0x40 MLOAD RETURNDATASIZE PUSH1 0x1F NOT PUSH1 0x1F DUP3 ADD AND DUP3 ADD DUP1 PUSH1 0x40 MSTORE POP DUP2 ADD SWAP1 PUSH2 0xC0B SWAP2 SWAP1 PUSH2 0x14F6 JUMP JUMPDEST PUSH1 0x1 JUMPDEST PUSH2 0xD6E JUMPI PUSH2 0xC1A PUSH2 0x10A3 JUMP JUMPDEST DUP1 PUSH4 0x8C379A0 SUB PUSH2 0xCB9 JUMPI POP PUSH2 0xC2E PUSH2 0x1136 JUMP JUMPDEST DUP1 PUSH2 0xC39 JUMPI POP PUSH2 0xCBB JUMP JUMPDEST PUSH20 0x0 PUSH4 0x39DF137F PUSH1 0x0 PUSH1 0x40 MLOAD DUP3 PUSH4 0xFFFFFFFF AND PUSH1 0xE0 SHL DUP2 MSTORE PUSH1 0x4 ADD PUSH2 0xC71 SWAP2 SWAP1 PUSH2 0x123E JUMP JUMPDEST PUSH1 0x20 PUSH1 0x40 MLOAD DUP1 DUP4 SUB DUP2 DUP7 GAS DELEGATECALL ISZERO DUP1 ISZERO PUSH2 0xC8E JUMPI RETURNDATASIZE PUSH1 0x0 DUP1 RETURNDATACOPY RETURNDATASIZE PUSH1 0x0 REVERT JUMPDEST POP POP POP POP PUSH1 0x40 MLOAD RETURNDATASIZE PUSH1 0x1F NOT PUSH1 0x1F DUP3 ADD AND DUP3 ADD DUP1 PUSH1 0x40 MSTORE POP DUP2 ADD SWAP1 PUSH2 0xCB2 SWAP2 SWAP1 PUSH2 0x1298 JUMP JUMPDEST POP POP PUSH2 0xD69 JUMP JUMPDEST POP JUMPDEST RETURNDATASIZE DUP1 PUSH1 0x0 DUP2 EQ PUSH2 0xCE7 JUMPI PUSH1 0x40 MLOAD SWAP2 POP PUSH1 0x1F NOT PUSH1 0x3F RETURNDATASIZE ADD AND DUP3 ADD PUSH1 0x40 MSTORE RETURNDATASIZE DUP3 MSTORE RETURNDATASIZE PUSH1 0x0 PUSH1 0x20 DUP5 ADD RETURNDATACOPY PUSH2 0xCEC JUMP JUMPDEST PUSH1 0x60 SWAP2 POP JUMPDEST POP PUSH20 0x0 PUSH4 0x39DF137F PUSH1 0x0 PUSH1 0x40 MLOAD DUP3 PUSH4 0xFFFFFFFF AND PUSH1 0xE0 SHL DUP2 MSTORE PUSH1 0x4 ADD PUSH2 0xD25 SWAP2 SWAP1 PUSH2 0x1311 JUMP JUMPDEST PUSH1 0x20 PUSH1 0x40 MLOAD DUP1 DUP4 SUB DUP2 DUP7 GAS DELEGATECALL ISZERO DUP1 ISZERO PUSH2 0xD42 JUMPI RETURNDATASIZE PUSH1 0x0 DUP1 RETURNDATACOPY RETURNDATASIZE PUSH1 0x0 REVERT JUMPDEST POP POP POP POP PUSH1 0x40 MLOAD RETURNDATASIZE PUSH1 0x1F NOT PUSH1 0x1F DUP3 ADD AND DUP3 ADD DUP1 PUSH1 0x40 MSTORE POP DUP2 ADD SWAP1 PUSH2 0xD66 SWAP2 SWAP1 PUSH2 0x1298 JUMP JUMPDEST POP POP JUMPDEST PUSH2 0xF0A JUMP JUMPDEST PUSH20 0x0 PUSH4 0xABCD7960 DUP4 PUSH1 0x2 PUSH1 0x40 MLOAD DUP4 PUSH4 0xFFFFFFFF AND PUSH1 0xE0 SHL DUP2 MSTORE PUSH1 0x4 ADD PUSH2 0xDA8 SWAP3 SWAP2 SWAP1 PUSH2 0x1584 JUMP JUMPDEST PUSH1 0x20 PUSH1 0x40 MLOAD DUP1 DUP4 SUB DUP2 DUP7 GAS DELEGATECALL ISZERO DUP1 ISZERO PUSH2 0xDC5 JUMPI RETURNDATASIZE PUSH1 0x0 DUP1 RETURNDATACOPY RETURNDATASIZE PUSH1 0x0 REVERT JUMPDEST POP POP POP POP PUSH1 0x40 MLOAD RETURNDATASIZE PUSH1 0x1F NOT PUSH1 0x1F DUP3 ADD AND DUP3 ADD DUP1 PUSH1 0x40 MSTORE POP DUP2 ADD SWAP1 PUSH2 0xDE9 SWAP2 SWAP1 PUSH2 0x1298 JUMP JUMPDEST POP PUSH20 0x0 PUSH4 0xABCD7960 DUP3 PUSH1 0x3 PUSH1 0x40 MLOAD DUP4 PUSH4 0xFFFFFFFF AND PUSH1 0xE0 SHL DUP2 MSTORE PUSH1 0x4 ADD PUSH2 0xE24 SWAP3 SWAP2 SWAP1 PUSH2 0x161B JUMP JUMPDEST PUSH1 0x20 PUSH1 0x40 MLOAD DUP1 DUP4 SUB DUP2 DUP7 GAS DELEGATECALL ISZERO DUP1 ISZERO PUSH2 0xE41 JUMPI RETURNDATASIZE PUSH1 0x0 DUP1 RETURNDATACOPY RETURNDATASIZE PUSH1 0x0 REVERT JUMPDEST POP POP POP POP PUSH1 0x40 MLOAD RETURNDATASIZE PUSH1 0x1F NOT PUSH1 0x1F DUP3 ADD AND DUP3 ADD DUP1 PUSH1 0x40 MSTORE POP DUP2 ADD SWAP1 PUSH2 0xE65 SWAP2 SWAP1 PUSH2 0x1298 JUMP JUMPDEST POP PUSH20 0x0 PUSH4 0x39DF137F PUSH1 0x0 PUSH1 0x4 DUP2 GT ISZERO PUSH2 0xE94 JUMPI PUSH2 0xE93 PUSH2 0xF19 JUMP JUMPDEST JUMPDEST DUP6 PUSH1 0x4 DUP2 GT ISZERO PUSH2 0xEA7 JUMPI PUSH2 0xEA6 PUSH2 0xF19 JUMP JUMPDEST JUMPDEST EQ PUSH1 0x40 MLOAD DUP3 PUSH4 0xFFFFFFFF AND PUSH1 0xE0 SHL DUP2 MSTORE PUSH1 0x4 ADD PUSH2 0xEC4 SWAP2 SWAP1 PUSH2 0x16A3 JUMP JUMPDEST PUSH1 0x20 PUSH1 0x40 MLOAD DUP1 DUP4 SUB DUP2 DUP7 GAS DELEGATECALL ISZERO DUP1 ISZERO PUSH2 0xEE1 JUMPI RETURNDATASIZE PUSH1 0x0 DUP1 RETURNDATACOPY RETURNDATASIZE PUSH1 0x0 REVERT JUMPDEST POP POP POP POP PUSH1 0x40 MLOAD RETURNDATASIZE PUSH1 0x1F NOT PUSH1 0x1F DUP3 ADD AND DUP3 ADD DUP1 PUSH1 0x40 MSTORE POP DUP2 ADD SWAP1 PUSH2 0xF05 SWAP2 SWAP1 PUSH2 0x1298 JUMP JUMPDEST POP POP POP POP JUMPDEST JUMP JUMPDEST PUSH2 0x9EB DUP1 PUSH2 0x194B DUP4 CODECOPY ADD SWAP1 JUMP JUMPDEST PUSH32 0x4E487B7100000000000000000000000000000000000000000000000000000000 PUSH1 0x0 MSTORE PUSH1 0x21 PUSH1 0x4 MSTORE PUSH1 0x24 PUSH1 0x0 REVERT JUMPDEST PUSH1 0x5 DUP2 LT PUSH2 0xF59 JUMPI PUSH2 0xF58 PUSH2 0xF19 JUMP JUMPDEST JUMPDEST POP JUMP JUMPDEST PUSH1 0x0 DUP2 SWAP1 POP PUSH2 0xF6A DUP3 PUSH2 0xF48 JUMP JUMPDEST SWAP2 SWAP1 POP JUMP JUMPDEST PUSH1 0x0 PUSH2 0xF7A DUP3 PUSH2 0xF5C JUMP JUMPDEST SWAP1 POP SWAP2 SWAP1 POP JUMP JUMPDEST PUSH2 0xF8A DUP2 PUSH2 0xF6F JUMP JUMPDEST DUP3 MSTORE POP POP JUMP JUMPDEST PUSH1 0x0 DUP2 SWAP1 POP SWAP2 SWAP1 POP JUMP JUMPDEST PUSH1 0x0 DUP2 SWAP1 POP SWAP2 SWAP1 POP JUMP JUMPDEST PUSH1 0x0 DUP2 SWAP1 POP SWAP2 SWAP1 POP JUMP JUMPDEST PUSH1 0x0 PUSH2 0xFC9 PUSH2 0xFC4 PUSH2 0xFBF DUP5 PUSH2 0xF90 JUMP JUMPDEST PUSH2 0xFA4 JUMP JUMPDEST PUSH2 0xF9A JUMP JUMPDEST SWAP1 POP SWAP2 SWAP1 POP JUMP JUMPDEST PUSH2 0xFD9 DUP2 PUSH2 0xFAE JUMP JUMPDEST DUP3 MSTORE POP POP JUMP JUMPDEST PUSH1 0x0 PUSH1 0x40 DUP3 ADD SWAP1 POP PUSH2 0xFF4 PUSH1 0x0 DUP4 ADD DUP6 PUSH2 0xF81 JUMP JUMPDEST PUSH2 0x1001 PUSH1 0x20 DUP4 ADD DUP5 PUSH2 0xFD0 JUMP JUMPDEST SWAP4 SWAP3 POP POP POP JUMP JUMPDEST PUSH1 0x0 PUSH1 0x40 MLOAD SWAP1 POP SWAP1 JUMP JUMPDEST PUSH1 0x0 DUP1 REVERT JUMPDEST PUSH2 0x1020 DUP2 PUSH2 0xF9A JUMP JUMPDEST DUP2 EQ PUSH2 0x102B JUMPI PUSH1 0x0 DUP1 REVERT JUMPDEST POP JUMP JUMPDEST PUSH1 0x0 DUP2 MLOAD SWAP1 POP PUSH2 0x103D DUP2 PUSH2 0x1017 JUMP JUMPDEST SWAP3 SWAP2 POP POP JUMP JUMPDEST PUSH1 0x0 DUP1 PUSH1 0x0 PUSH1 0x60 DUP5 DUP7 SUB SLT ISZERO PUSH2 0x105C JUMPI PUSH2 0x105B PUSH2 0x1012 JUMP JUMPDEST JUMPDEST PUSH1 0x0 PUSH2 0x106A DUP7 DUP3 DUP8 ADD PUSH2 0x102E JUMP JUMPDEST SWAP4 POP POP PUSH1 0x20 PUSH2 0x107B DUP7 DUP3 DUP8 ADD PUSH2 0x102E JUMP JUMPDEST SWAP3 POP POP PUSH1 0x40 PUSH2 0x108C DUP7 DUP3 DUP8 ADD PUSH2 0x102E JUMP JUMPDEST SWAP2 POP POP SWAP3 POP SWAP3 POP SWAP3 JUMP JUMPDEST PUSH1 0x0 DUP2 PUSH1 0xE0 SHR SWAP1 POP SWAP2 SWAP1 POP JUMP JUMPDEST PUSH1 0x0 PUSH1 0x3 RETURNDATASIZE GT ISZERO PUSH2 0x10C2 JUMPI PUSH1 0x4 PUSH1 0x0 DUP1 RETURNDATACOPY PUSH2 0x10BF PUSH1 0x0 MLOAD PUSH2 0x1096 JUMP JUMPDEST SWAP1 POP JUMPDEST SWAP1 JUMP JUMPDEST PUSH1 0x0 PUSH1 0x1F NOT PUSH1 0x1F DUP4 ADD AND SWAP1 POP SWAP2 SWAP1 POP JUMP JUMPDEST PUSH32 0x4E487B7100000000000000000000000000000000000000000000000000000000 PUSH1 0x0 MSTORE PUSH1 0x41 PUSH1 0x4 MSTORE PUSH1 0x24 PUSH1 0x0 REVERT JUMPDEST PUSH2 0x110E DUP3 PUSH2 0x10C5 JUMP JUMPDEST DUP2 ADD DUP2 DUP2 LT PUSH8 0xFFFFFFFFFFFFFFFF DUP3 GT OR ISZERO PUSH2 0x112D JUMPI PUSH2 0x112C PUSH2 0x10D6 JUMP JUMPDEST JUMPDEST DUP1 PUSH1 0x40 MSTORE POP POP POP JUMP JUMPDEST PUSH1 0x0 PUSH1 0x44 RETURNDATASIZE LT PUSH2 0x11C3 JUMPI PUSH2 0x1148 PUSH2 0x1008 JUMP JUMPDEST PUSH1 0x4 RETURNDATASIZE SUB PUSH1 0x4 DUP3 RETURNDATACOPY DUP1 MLOAD RETURNDATASIZE PUSH1 0x24 DUP3 ADD GT PUSH8 0xFFFFFFFFFFFFFFFF DUP3 GT OR ISZERO PUSH2 0x1170 JUMPI POP POP PUSH2 0x11C3 JUMP JUMPDEST DUP1 DUP3 ADD DUP1 MLOAD PUSH8 0xFFFFFFFFFFFFFFFF DUP2 GT ISZERO PUSH2 0x118E JUMPI POP POP POP POP PUSH2 0x11C3 JUMP JUMPDEST DUP1 PUSH1 0x20 DUP4 ADD ADD PUSH1 0x4 RETURNDATASIZE SUB DUP6 ADD DUP2 GT ISZERO PUSH2 0x11AB JUMPI POP POP POP POP POP PUSH2 0x11C3 JUMP JUMPDEST PUSH2 0x11BA DUP3 PUSH1 0x20 ADD DUP6 ADD DUP7 PUSH2 0x1105 JUMP JUMPDEST DUP3 SWAP6 POP POP POP POP POP POP JUMPDEST SWAP1 JUMP JUMPDEST PUSH1 0x0 DUP2 ISZERO ISZERO SWAP1 POP SWAP2 SWAP1 POP JUMP JUMPDEST PUSH2 0x11DB DUP2 PUSH2 0x11C6 JUMP JUMPDEST DUP3 MSTORE POP POP JUMP JUMPDEST PUSH1 0x0 DUP3 DUP3 MSTORE PUSH1 0x20 DUP3 ADD SWAP1 POP SWAP3 SWAP2 POP POP JUMP JUMPDEST PUSH32 0x6661696C6564207769746820726561736F6E0000000000000000000000000000 PUSH1 0x0 DUP3 ADD MSTORE POP JUMP JUMPDEST PUSH1 0x0 PUSH2 0x1228 PUSH1 0x12 DUP4 PUSH2 0x11E1 JUMP JUMPDEST SWAP2 POP PUSH2 0x1233 DUP3 PUSH2 0x11F2 JUMP JUMPDEST PUSH1 0x20 DUP3 ADD SWAP1 POP SWAP2 SWAP1 POP JUMP JUMPDEST PUSH1 0x0 PUSH1 0x40 DUP3 ADD SWAP1 POP PUSH2 0x1253 PUSH1 0x0 DUP4 ADD DUP5 PUSH2 0x11D2 JUMP JUMPDEST DUP2 DUP2 SUB PUSH1 0x20 DUP4 ADD MSTORE PUSH2 0x1264 DUP2 PUSH2 0x121B JUMP JUMPDEST SWAP1 POP SWAP3 SWAP2 POP POP JUMP JUMPDEST PUSH2 0x1275 DUP2 PUSH2 0x11C6 JUMP JUMPDEST DUP2 EQ PUSH2 0x1280 JUMPI PUSH1 0x0 DUP1 REVERT JUMPDEST POP JUMP JUMPDEST PUSH1 0x0 DUP2 MLOAD SWAP1 POP PUSH2 0x1292 DUP2 PUSH2 0x126C JUMP JUMPDEST SWAP3 SWAP2 POP POP JUMP JUMPDEST PUSH1 0x0 PUSH1 0x20 DUP3 DUP5 SUB SLT ISZERO PUSH2 0x12AE JUMPI PUSH2 0x12AD PUSH2 0x1012 JUMP JUMPDEST JUMPDEST PUSH1 0x0 PUSH2 0x12BC DUP5 DUP3 DUP6 ADD PUSH2 0x1283 JUMP JUMPDEST SWAP2 POP POP SWAP3 SWAP2 POP POP JUMP JUMPDEST PUSH32 0x6661696C656420756E6578706563746564000000000000000000000000000000 PUSH1 0x0 DUP3 ADD MSTORE POP JUMP JUMPDEST PUSH1 0x0 PUSH2 0x12FB PUSH1 0x11 DUP4 PUSH2 0x11E1 JUMP JUMPDEST SWAP2 POP PUSH2 0x1306 DUP3 PUSH2 0x12C5 JUMP JUMPDEST PUSH1 0x20 DUP3 ADD SWAP1 POP SWAP2 SWAP1 POP JUMP JUMPDEST PUSH1 0x0 PUSH1 0x40 DUP3 ADD SWAP1 POP PUSH2 0x1326 PUSH1 0x0 DUP4 ADD DUP5 PUSH2 0x11D2 JUMP JUMPDEST DUP2 DUP2 SUB PUSH1 0x20 DUP4 ADD MSTORE PUSH2 0x1337 DUP2 PUSH2 0x12EE JUMP JUMPDEST SWAP1 POP SWAP3 SWAP2 POP POP JUMP JUMPDEST PUSH2 0x1348 DUP2 PUSH2 0xF9A JUMP JUMPDEST DUP3 MSTORE POP POP JUMP JUMPDEST PUSH2 0x1357 DUP2 PUSH2 0xFAE JUMP JUMPDEST DUP3 MSTORE POP POP JUMP JUMPDEST PUSH32 0x6572726F722072656D61696E696E67204943455F544541000000000000000000 PUSH1 0x0 DUP3 ADD MSTORE POP JUMP JUMPDEST PUSH1 0x0 PUSH2 0x1393 PUSH1 0x17 DUP4 PUSH2 0x11E1 JUMP JUMPDEST SWAP2 POP PUSH2 0x139E DUP3 PUSH2 0x135D JUMP JUMPDEST PUSH1 0x20 DUP3 ADD SWAP1 POP SWAP2 SWAP1 POP JUMP JUMPDEST PUSH1 0x0 PUSH1 0x60 DUP3 ADD SWAP1 POP PUSH2 0x13BE PUSH1 0x0 DUP4 ADD DUP6 PUSH2 0x133F JUMP JUMPDEST PUSH2 0x13CB PUSH1 0x20 DUP4 ADD DUP5 PUSH2 0x134E JUMP JUMPDEST DUP2 DUP2 SUB PUSH1 0x40 DUP4 ADD MSTORE PUSH2 0x13DC DUP2 PUSH2 0x1386 JUMP JUMPDEST SWAP1 POP SWAP4 SWAP3 POP POP POP JUMP JUMPDEST PUSH32 0x6572726F72206164646564204943455F54454100000000000000000000000000 PUSH1 0x0 DUP3 ADD MSTORE POP JUMP JUMPDEST PUSH1 0x0 PUSH2 0x141B PUSH1 0x13 DUP4 PUSH2 0x11E1 JUMP JUMPDEST SWAP2 POP PUSH2 0x1426 DUP3 PUSH2 0x13E5 JUMP JUMPDEST PUSH1 0x20 DUP3 ADD SWAP1 POP SWAP2 SWAP1 POP JUMP JUMPDEST PUSH1 0x0 PUSH1 0x60 DUP3 ADD SWAP1 POP PUSH2 0x1446 PUSH1 0x0 DUP4 ADD DUP6 PUSH2 0x133F JUMP JUMPDEST PUSH2 0x1453 PUSH1 0x20 DUP4 ADD DUP5 PUSH2 0x134E JUMP JUMPDEST DUP2 DUP2 SUB PUSH1 0x40 DUP4 ADD MSTORE PUSH2 0x1464 DUP2 PUSH2 0x140E JUMP JUMPDEST SWAP1 POP SWAP4 SWAP3 POP POP POP JUMP JUMPDEST PUSH1 0x0 DUP2 SWAP1 POP SWAP2 SWAP1 POP JUMP JUMPDEST PUSH1 0x0 PUSH2 0x1492 PUSH2 0x148D PUSH2 0x1488 DUP5 PUSH2 0x146D JUMP JUMPDEST PUSH2 0xFA4 JUMP JUMPDEST PUSH2 0xF9A JUMP JUMPDEST SWAP1 POP SWAP2 SWAP1 POP JUMP JUMPDEST PUSH2 0x14A2 DUP2 PUSH2 0x1477 JUMP JUMPDEST DUP3 MSTORE POP POP JUMP JUMPDEST PUSH1 0x0 PUSH1 0x40 DUP3 ADD SWAP1 POP PUSH2 0x14BD PUSH1 0x0 DUP4 ADD DUP6 PUSH2 0xF81 JUMP JUMPDEST PUSH2 0x14CA PUSH1 0x20 DUP4 ADD DUP5 PUSH2 0x1499 JUMP JUMPDEST SWAP4 SWAP3 POP POP POP JUMP JUMPDEST PUSH1 0x5 DUP2 LT PUSH2 0x14DE JUMPI PUSH1 0x0 DUP1 REVERT JUMPDEST POP JUMP JUMPDEST PUSH1 0x0 DUP2 MLOAD SWAP1 POP PUSH2 0x14F0 DUP2 PUSH2 0x14D1 JUMP JUMPDEST SWAP3 SWAP2 POP POP JUMP JUMPDEST PUSH1 0x0 DUP1 PUSH1 0x0 PUSH1 0x60 DUP5 DUP7 SUB SLT ISZERO PUSH2 0x150F JUMPI PUSH2 0x150E PUSH2 0x1012 JUMP JUMPDEST JUMPDEST PUSH1 0x0 PUSH2 0x151D DUP7 DUP3 DUP8 ADD PUSH2 0x14E1 JUMP JUMPDEST SWAP4 POP POP PUSH1 0x20 PUSH2 0x152E DUP7 DUP3 DUP8 ADD PUSH2 0x102E JUMP JUMPDEST SWAP3 POP POP PUSH1 0x40 PUSH2 0x153F DUP7 DUP3 DUP8 ADD PUSH2 0x102E JUMP JUMPDEST SWAP2 POP POP SWAP3 POP SWAP3 POP SWAP3 JUMP JUMPDEST PUSH1 0x0 DUP2 SWAP1 POP SWAP2 SWAP1 POP JUMP JUMPDEST PUSH1 0x0 PUSH2 0x156E PUSH2 0x1569 PUSH2 0x1564 DUP5 PUSH2 0x1549 JUMP JUMPDEST PUSH2 0xFA4 JUMP JUMPDEST PUSH2 0xF9A JUMP JUMPDEST SWAP1 POP SWAP2 SWAP1 POP JUMP JUMPDEST PUSH2 0x157E DUP2 PUSH2 0x1553 JUMP JUMPDEST DUP3 MSTORE POP POP JUMP JUMPDEST PUSH1 0x0 PUSH1 0x60 DUP3 ADD SWAP1 POP PUSH2 0x1599 PUSH1 0x0 DUP4 ADD DUP6 PUSH2 0x133F JUMP JUMPDEST PUSH2 0x15A6 PUSH1 0x20 DUP4 ADD DUP5 PUSH2 0x1575 JUMP JUMPDEST DUP2 DUP2 SUB PUSH1 0x40 DUP4 ADD MSTORE PUSH2 0x15B7 DUP2 PUSH2 0x1386 JUMP JUMPDEST SWAP1 POP SWAP4 SWAP3 POP POP POP JUMP JUMPDEST PUSH2 0x15C9 DUP2 PUSH2 0x1477 JUMP JUMPDEST DUP3 MSTORE POP POP JUMP JUMPDEST PUSH32 0x6572726F7220676976656E204943455F54454100000000000000000000000000 PUSH1 0x0 DUP3 ADD MSTORE POP JUMP JUMPDEST PUSH1 0x0 PUSH2 0x1605 PUSH1 0x13 DUP4 PUSH2 0x11E1 JUMP JUMPDEST SWAP2 POP PUSH2 0x1610 DUP3 PUSH2 0x15CF JUMP JUMPDEST PUSH1 0x20 DUP3 ADD SWAP1 POP SWAP2 SWAP1 POP JUMP JUMPDEST PUSH1 0x0 PUSH1 0x60 DUP3 ADD SWAP1 POP PUSH2 0x1630 PUSH1 0x0 DUP4 ADD DUP6 PUSH2 0x133F JUMP JUMPDEST PUSH2 0x163D PUSH1 0x20 DUP4 ADD DUP5 PUSH2 0x15C0 JUMP JUMPDEST DUP2 DUP2 SUB PUSH1 0x40 DUP4 ADD MSTORE PUSH2 0x164E DUP2 PUSH2 0x15F8 JUMP JUMPDEST SWAP1 POP SWAP4 SWAP3 POP POP POP JUMP JUMPDEST PUSH32 0x6572726F722072657475726E206D657400000000000000000000000000000000 PUSH1 0x0 DUP3 ADD MSTORE POP JUMP JUMPDEST PUSH1 0x0 PUSH2 0x168D PUSH1 0x10 DUP4 PUSH2 0x11E1 JUMP JUMPDEST SWAP2 POP PUSH2 0x1698 DUP3 PUSH2 0x1657 JUMP JUMPDEST PUSH1 0x20 DUP3 ADD SWAP1 POP SWAP2 SWAP1 POP JUMP JUMPDEST PUSH1 0x0 PUSH1 0x40 DUP3 ADD SWAP1 POP PUSH2 0x16B8 PUSH1 0x0 DUP4 ADD DUP5 PUSH2 0x11D2 JUMP JUMPDEST DUP2 DUP2 SUB PUSH1 0x20 DUP4 ADD MSTORE PUSH2 0x16C9 DUP2 PUSH2 0x1680 JUMP JUMPDEST SWAP1 POP SWAP3 SWAP2 POP POP JUMP JUMPDEST PUSH1 0x0 DUP2 SWAP1 POP SWAP2 SWAP1 POP JUMP JUMPDEST PUSH1 0x0 PUSH2 0x16F6 PUSH2 0x16F1 PUSH2 0x16EC DUP5 PUSH2 0x16D1 JUMP JUMPDEST PUSH2 0xFA4 JUMP JUMPDEST PUSH2 0xF9A JUMP JUMPDEST SWAP1 POP SWAP2 SWAP1 POP JUMP JUMPDEST PUSH2 0x1706 DUP2 PUSH2 0x16DB JUMP JUMPDEST DUP3 MSTORE POP POP JUMP JUMPDEST PUSH1 0x0 PUSH1 0x40 DUP3 ADD SWAP1 POP PUSH2 0x1721 PUSH1 0x0 DUP4 ADD DUP6 PUSH2 0xF81 JUMP JUMPDEST PUSH2 0x172E PUSH1 0x20 DUP4 ADD DUP5 PUSH2 0x16FD JUMP JUMPDEST SWAP4 SWAP3 POP POP POP JUMP JUMPDEST PUSH1 0x0 DUP2 SWAP1 POP SWAP2 SWAP1 POP JUMP JUMPDEST PUSH1 0x0 PUSH2 0x175A PUSH2 0x1755 PUSH2 0x1750 DUP5 PUSH2 0x1735 JUMP JUMPDEST PUSH2 0xFA4 JUMP JUMPDEST PUSH2 0xF9A JUMP JUMPDEST SWAP1 POP SWAP2 SWAP1 POP JUMP JUMPDEST PUSH2 0x176A DUP2 PUSH2 0x173F JUMP JUMPDEST DUP3 MSTORE POP POP JUMP JUMPDEST PUSH1 0x0 PUSH1 0x60 DUP3 ADD SWAP1 POP PUSH2 0x1785 PUSH1 0x0 DUP4 ADD DUP6 PUSH2 0x133F JUMP JUMPDEST PUSH2 0x1792 PUSH1 0x20 DUP4 ADD DUP5 PUSH2 0x1761 JUMP JUMPDEST DUP2 DUP2 SUB PUSH1 0x40 DUP4 ADD MSTORE PUSH2 0x17A3 DUP2 PUSH2 0x1386 JUMP JUMPDEST SWAP1 POP SWAP4 SWAP3 POP POP POP JUMP JUMPDEST PUSH1 0x0 DUP2 SWAP1 POP SWAP2 SWAP1 POP JUMP JUMPDEST PUSH1 0x0 PUSH2 0x17D1 PUSH2 0x17CC PUSH2 0x17C7 DUP5 PUSH2 0x17AC JUMP JUMPDEST PUSH2 0xFA4 JUMP JUMPDEST PUSH2 0xF9A JUMP JUMPDEST SWAP1 POP SWAP2 SWAP1 POP JUMP JUMPDEST PUSH2 0x17E1 DUP2 PUSH2 0x17B6 JUMP JUMPDEST DUP3 MSTORE POP POP JUMP JUMPDEST PUSH32 0x6572726F722061646465645F746F74204943455F544541000000000000000000 PUSH1 0x0 DUP3 ADD MSTORE POP JUMP JUMPDEST PUSH1 0x0 PUSH2 0x181D PUSH1 0x17 DUP4 PUSH2 0x11E1 JUMP JUMPDEST SWAP2 POP PUSH2 0x1828 DUP3 PUSH2 0x17E7 JUMP JUMPDEST PUSH1 0x20 DUP3 ADD SWAP1 POP SWAP2 SWAP1 POP JUMP JUMPDEST PUSH1 0x0 PUSH1 0x60 DUP3 ADD SWAP1 POP PUSH2 0x1848 PUSH1 0x0 DUP4 ADD DUP6 PUSH2 0x133F JUMP JUMPDEST PUSH2 0x1855 PUSH1 0x20 DUP4 ADD DUP5 PUSH2 0x17D8 JUMP JUMPDEST DUP2 DUP2 SUB PUSH1 0x40 DUP4 ADD MSTORE PUSH2 0x1866 DUP2 PUSH2 0x1810 JUMP JUMPDEST SWAP1 POP SWAP4 SWAP3 POP POP POP JUMP JUMPDEST PUSH1 0x0 DUP2 SWAP1 POP SWAP2 SWAP1 POP JUMP JUMPDEST PUSH1 0x0 PUSH2 0x1894 PUSH2 0x188F PUSH2 0x188A DUP5 PUSH2 0x186F JUMP JUMPDEST PUSH2 0xFA4 JUMP JUMPDEST PUSH2 0xF9A JUMP JUMPDEST SWAP1 POP SWAP2 SWAP1 POP JUMP JUMPDEST PUSH2 0x18A4 DUP2 PUSH2 0x1879 JUMP JUMPDEST DUP3 MSTORE POP POP JUMP JUMPDEST PUSH1 0x0 PUSH1 0x60 DUP3 ADD SWAP1 POP PUSH2 0x18BF PUSH1 0x0 DUP4 ADD DUP6 PUSH2 0x133F JUMP JUMPDEST PUSH2 0x18CC PUSH1 0x20 DUP4 ADD DUP5 PUSH2 0x189B JUMP JUMPDEST DUP2 DUP2 SUB PUSH1 0x40 DUP4 ADD MSTORE PUSH2 0x18DD DUP2 PUSH2 0x140E JUMP JUMPDEST SWAP1 POP SWAP4 SWAP3 POP POP POP JUMP JUMPDEST PUSH1 0x0 DUP2 SWAP1 POP SWAP2 SWAP1 POP JUMP JUMPDEST PUSH1 0x0 PUSH2 0x190B PUSH2 0x1906 PUSH2 0x1901 DUP5 PUSH2 0x18E6 JUMP JUMPDEST PUSH2 0xFA4 JUMP JUMPDEST PUSH2 0xF9A JUMP JUMPDEST SWAP1 POP SWAP2 SWAP1 POP JUMP JUMPDEST PUSH2 0x191B DUP2 PUSH2 0x18F0 JUMP JUMPDEST DUP3 MSTORE POP POP JUMP JUMPDEST PUSH1 0x0 PUSH1 0x40 DUP3 ADD SWAP1 POP PUSH2 0x1936 PUSH1 0x0 DUP4 ADD DUP6 PUSH2 0xF81 JUMP JUMPDEST PUSH2 0x1943 PUSH1 0x20 DUP4 ADD DUP5 PUSH2 0x1912 JUMP JUMPDEST SWAP4 SWAP3 POP POP POP JUMP INVALID PUSH1 0x80 PUSH1 0x40 MSTORE CALLVALUE DUP1 ISZERO PUSH2 0x10 JUMPI PUSH1 0x0 DUP1 REVERT JUMPDEST POP PUSH2 0x9CB DUP1 PUSH2 0x20 PUSH1 0x0 CODECOPY PUSH1 0x0 RETURN INVALID PUSH1 0x80 PUSH1 0x40 MSTORE CALLVALUE DUP1 ISZERO PUSH2 0x10 JUMPI PUSH1 0x0 DUP1 REVERT JUMPDEST POP PUSH1 0x4 CALLDATASIZE LT PUSH2 0x57 JUMPI PUSH1 0x0 CALLDATALOAD PUSH1 0xE0 SHR DUP1 PUSH4 0x8D65DF2A EQ PUSH2 0x5C JUMPI DUP1 PUSH4 0xAD940F00 EQ PUSH2 0x8E JUMPI DUP1 PUSH4 0xC332C3BE EQ PUSH2 0xBE JUMPI DUP1 PUSH4 0xC79CF758 EQ PUSH2 0xF0 JUMPI DUP1 PUSH4 0xFA66C1BA EQ PUSH2 0x120 JUMPI JUMPDEST PUSH1 0x0 DUP1 REVERT JUMPDEST PUSH2 0x76 PUSH1 0x4 DUP1 CALLDATASIZE SUB DUP2 ADD SWAP1 PUSH2 0x71 SWAP2 SWAP1 PUSH2 0x782 JUMP JUMPDEST PUSH2 0x150 JUMP JUMPDEST PUSH1 0x40 MLOAD PUSH2 0x85 SWAP4 SWAP3 SWAP2 SWAP1 PUSH2 0x7D1 JUMP JUMPDEST PUSH1 0x40 MLOAD DUP1 SWAP2 SUB SWAP1 RETURN JUMPDEST PUSH2 0xA8 PUSH1 0x4 DUP1 CALLDATASIZE SUB DUP2 ADD SWAP1 PUSH2 0xA3 SWAP2 SWAP1 PUSH2 0x808 JUMP JUMPDEST PUSH2 0x436 JUMP JUMPDEST PUSH1 0x40 MLOAD PUSH2 0xB5 SWAP2 SWAP1 PUSH2 0x835 JUMP JUMPDEST PUSH1 0x40 MLOAD DUP1 SWAP2 SUB SWAP1 RETURN JUMPDEST PUSH2 0xD8 PUSH1 0x4 DUP1 CALLDATASIZE SUB DUP2 ADD SWAP1 PUSH2 0xD3 SWAP2 SWAP1 PUSH2 0x782 JUMP JUMPDEST PUSH2 0x44E JUMP JUMPDEST PUSH1 0x40 MLOAD PUSH2 0xE7 SWAP4 SWAP3 SWAP2 SWAP1 PUSH2 0x8C7 JUMP JUMPDEST PUSH1 0x40 MLOAD DUP1 SWAP2 SUB SWAP1 RETURN JUMPDEST PUSH2 0x10A PUSH1 0x4 DUP1 CALLDATASIZE SUB DUP2 ADD SWAP1 PUSH2 0x105 SWAP2 SWAP1 PUSH2 0x808 JUMP JUMPDEST PUSH2 0x6F2 JUMP JUMPDEST PUSH1 0x40 MLOAD PUSH2 0x117 SWAP2 SWAP1 PUSH2 0x835 JUMP JUMPDEST PUSH1 0x40 MLOAD DUP1 SWAP2 SUB SWAP1 RETURN JUMPDEST PUSH2 0x13A PUSH1 0x4 DUP1 CALLDATASIZE SUB DUP2 ADD SWAP1 PUSH2 0x135 SWAP2 SWAP1 PUSH2 0x808 JUMP JUMPDEST PUSH2 0x70A JUMP JUMPDEST PUSH1 0x40 MLOAD PUSH2 0x147 SWAP2 SWAP1 PUSH2 0x835 JUMP JUMPDEST PUSH1 0x40 MLOAD DUP1 SWAP2 SUB SWAP1 RETURN JUMPDEST PUSH1 0x0 DUP1 PUSH1 0x0 DUP1 PUSH1 0x2A DUP6 PUSH1 0x0 DUP1 DUP10 PUSH1 0x4 DUP2 GT ISZERO PUSH2 0x16F JUMPI PUSH2 0x16E PUSH2 0x850 JUMP JUMPDEST JUMPDEST PUSH1 0x4 DUP2 GT ISZERO PUSH2 0x181 JUMPI PUSH2 0x180 PUSH2 0x850 JUMP JUMPDEST JUMPDEST DUP2 MSTORE PUSH1 0x20 ADD SWAP1 DUP2 MSTORE PUSH1 0x20 ADD PUSH1 0x0 KECCAK256 SLOAD PUSH2 0x19A SWAP2 SWAP1 PUSH2 0x92D JUMP JUMPDEST GT ISZERO PUSH2 0x2BA JUMPI PUSH1 0x2A DUP6 PUSH1 0x0 DUP1 DUP10 PUSH1 0x4 DUP2 GT ISZERO PUSH2 0x1B9 JUMPI PUSH2 0x1B8 PUSH2 0x850 JUMP JUMPDEST JUMPDEST PUSH1 0x4 DUP2 GT ISZERO PUSH2 0x1CB JUMPI PUSH2 0x1CA PUSH2 0x850 JUMP JUMPDEST JUMPDEST DUP2 MSTORE PUSH1 0x20 ADD SWAP1 DUP2 MSTORE PUSH1 0x20 ADD PUSH1 0x0 KECCAK256 SLOAD PUSH2 0x1E4 SWAP2 SWAP1 PUSH2 0x92D JUMP JUMPDEST PUSH2 0x1EE SWAP2 SWAP1 PUSH2 0x961 JUMP JUMPDEST DUP6 PUSH2 0x1F9 SWAP2 SWAP1 PUSH2 0x961 JUMP JUMPDEST SWAP1 POP DUP1 PUSH1 0x2 PUSH1 0x0 DUP9 PUSH1 0x4 DUP2 GT ISZERO PUSH2 0x213 JUMPI PUSH2 0x212 PUSH2 0x850 JUMP JUMPDEST JUMPDEST PUSH1 0x4 DUP2 GT ISZERO PUSH2 0x225 JUMPI PUSH2 0x224 PUSH2 0x850 JUMP JUMPDEST JUMPDEST DUP2 MSTORE PUSH1 0x20 ADD SWAP1 DUP2 MSTORE PUSH1 0x20 ADD PUSH1 0x0 KECCAK256 SLOAD PUSH2 0x23E SWAP2 SWAP1 PUSH2 0x92D JUMP JUMPDEST PUSH1 0x2 PUSH1 0x0 DUP9 PUSH1 0x4 DUP2 GT ISZERO PUSH2 0x255 JUMPI PUSH2 0x254 PUSH2 0x850 JUMP JUMPDEST JUMPDEST PUSH1 0x4 DUP2 GT ISZERO PUSH2 0x267 JUMPI PUSH2 0x266 PUSH2 0x850 JUMP JUMPDEST JUMPDEST DUP2 MSTORE PUSH1 0x20 ADD SWAP1 DUP2 MSTORE PUSH1 0x20 ADD PUSH1 0x0 KECCAK256 DUP2 SWAP1 SSTORE POP PUSH1 0x2A PUSH1 0x0 DUP1 DUP9 PUSH1 0x4 DUP2 GT ISZERO PUSH2 0x291 JUMPI PUSH2 0x290 PUSH2 0x850 JUMP JUMPDEST JUMPDEST PUSH1 0x4 DUP2 GT ISZERO PUSH2 0x2A3 JUMPI PUSH2 0x2A2 PUSH2 0x850 JUMP JUMPDEST JUMPDEST DUP2 MSTORE PUSH1 0x20 ADD SWAP1 DUP2 MSTORE PUSH1 0x20 ADD PUSH1 0x0 KECCAK256 DUP2 SWAP1 SSTORE POP PUSH2 0x3B8 JUMP JUMPDEST DUP5 SWAP1 POP DUP5 PUSH1 0x0 DUP1 DUP9 PUSH1 0x4 DUP2 GT ISZERO PUSH2 0x2D4 JUMPI PUSH2 0x2D3 PUSH2 0x850 JUMP JUMPDEST JUMPDEST PUSH1 0x4 DUP2 GT ISZERO PUSH2 0x2E6 JUMPI PUSH2 0x2E5 PUSH2 0x850 JUMP JUMPDEST JUMPDEST DUP2 MSTORE PUSH1 0x20 ADD SWAP1 DUP2 MSTORE PUSH1 0x20 ADD PUSH1 0x0 KECCAK256 SLOAD PUSH2 0x2FF SWAP2 SWAP1 PUSH2 0x92D JUMP JUMPDEST PUSH1 0x0 DUP1 DUP9 PUSH1 0x4 DUP2 GT ISZERO PUSH2 0x315 JUMPI PUSH2 0x314 PUSH2 0x850 JUMP JUMPDEST JUMPDEST PUSH1 0x4 DUP2 GT ISZERO PUSH2 0x327 JUMPI PUSH2 0x326 PUSH2 0x850 JUMP JUMPDEST JUMPDEST DUP2 MSTORE PUSH1 0x20 ADD SWAP1 DUP2 MSTORE PUSH1 0x20 ADD PUSH1 0x0 KECCAK256 DUP2 SWAP1 SSTORE POP DUP5 PUSH1 0x2 PUSH1 0x0 DUP9 PUSH1 0x4 DUP2 GT ISZERO PUSH2 0x351 JUMPI PUSH2 0x350 PUSH2 0x850 JUMP JUMPDEST JUMPDEST PUSH1 0x4 DUP2 GT ISZERO PUSH2 0x363 JUMPI PUSH2 0x362 PUSH2 0x850 JUMP JUMPDEST JUMPDEST DUP2 MSTORE PUSH1 0x20 ADD SWAP1 DUP2 MSTORE PUSH1 0x20 ADD PUSH1 0x0 KECCAK256 SLOAD PUSH2 0x37C SWAP2 SWAP1 PUSH2 0x92D JUMP JUMPDEST PUSH1 0x2 PUSH1 0x0 DUP9 PUSH1 0x4 DUP2 GT ISZERO PUSH2 0x393 JUMPI PUSH2 0x392 PUSH2 0x850 JUMP JUMPDEST JUMPDEST PUSH1 0x4 DUP2 GT ISZERO PUSH2 0x3A5 JUMPI PUSH2 0x3A4 PUSH2 0x850 JUMP JUMPDEST JUMPDEST DUP2 MSTORE PUSH1 0x20 ADD SWAP1 DUP2 MSTORE PUSH1 0x20 ADD PUSH1 0x0 KECCAK256 DUP2 SWAP1 SSTORE POP JUMPDEST PUSH1 0x0 DUP1 DUP8 PUSH1 0x4 DUP2 GT ISZERO PUSH2 0x3CE JUMPI PUSH2 0x3CD PUSH2 0x850 JUMP JUMPDEST JUMPDEST PUSH1 0x4 DUP2 GT ISZERO PUSH2 0x3E0 JUMPI PUSH2 0x3DF PUSH2 0x850 JUMP JUMPDEST JUMPDEST DUP2 MSTORE PUSH1 0x20 ADD SWAP1 DUP2 MSTORE PUSH1 0x20 ADD PUSH1 0x0 KECCAK256 SLOAD PUSH1 0x2 PUSH1 0x0 DUP9 PUSH1 0x4 DUP2 GT ISZERO PUSH2 0x406 JUMPI PUSH2 0x405 PUSH2 0x850 JUMP JUMPDEST JUMPDEST PUSH1 0x4 DUP2 GT ISZERO PUSH2 0x418 JUMPI PUSH2 0x417 PUSH2 0x850 JUMP JUMPDEST JUMPDEST DUP2 MSTORE PUSH1 0x20 ADD SWAP1 DUP2 MSTORE PUSH1 0x20 ADD PUSH1 0x0 KECCAK256 SLOAD DUP3 SWAP4 POP SWAP4 POP SWAP4 POP POP SWAP3 POP SWAP3 POP SWAP3 JUMP JUMPDEST PUSH1 0x1 PUSH1 0x20 MSTORE DUP1 PUSH1 0x0 MSTORE PUSH1 0x40 PUSH1 0x0 KECCAK256 PUSH1 0x0 SWAP2 POP SWAP1 POP SLOAD DUP2 JUMP JUMPDEST PUSH1 0x0 DUP1 PUSH1 0x0 DUP4 PUSH1 0x0 DUP1 DUP8 PUSH1 0x4 DUP2 GT ISZERO PUSH2 0x46A JUMPI PUSH2 0x469 PUSH2 0x850 JUMP JUMPDEST JUMPDEST PUSH1 0x4 DUP2 GT ISZERO PUSH2 0x47C JUMPI PUSH2 0x47B PUSH2 0x850 JUMP JUMPDEST JUMPDEST DUP2 MSTORE PUSH1 0x20 ADD SWAP1 DUP2 MSTORE PUSH1 0x20 ADD PUSH1 0x0 KECCAK256 SLOAD LT ISZERO PUSH2 0x57A JUMPI PUSH1 0x0 DUP1 DUP7 PUSH1 0x4 DUP2 GT ISZERO PUSH2 0x4A7 JUMPI PUSH2 0x4A6 PUSH2 0x850 JUMP JUMPDEST JUMPDEST PUSH1 0x4 DUP2 GT ISZERO PUSH2 0x4B9 JUMPI PUSH2 0x4B8 PUSH2 0x850 JUMP JUMPDEST JUMPDEST DUP2 MSTORE PUSH1 0x20 ADD SWAP1 DUP2 MSTORE PUSH1 0x20 ADD PUSH1 0x0 KECCAK256 SLOAD PUSH1 0x0 DUP1 DUP8 PUSH1 0x4 DUP2 GT ISZERO PUSH2 0x4DE JUMPI PUSH2 0x4DD PUSH2 0x850 JUMP JUMPDEST JUMPDEST PUSH1 0x4 DUP2 GT ISZERO PUSH2 0x4F0 JUMPI PUSH2 0x4EF PUSH2 0x850 JUMP JUMPDEST JUMPDEST DUP2 MSTORE PUSH1 0x20 ADD SWAP1 DUP2 MSTORE PUSH1 0x20 ADD PUSH1 0x0 KECCAK256 DUP2 SWAP1 SSTORE POP PUSH1 0x1 PUSH1 0x0 DUP7 PUSH1 0x4 DUP2 GT ISZERO PUSH2 0x519 JUMPI PUSH2 0x518 PUSH2 0x850 JUMP JUMPDEST JUMPDEST PUSH1 0x4 DUP2 GT ISZERO PUSH2 0x52B JUMPI PUSH2 0x52A PUSH2 0x850 JUMP JUMPDEST JUMPDEST DUP2 MSTORE PUSH1 0x20 ADD SWAP1 DUP2 MSTORE PUSH1 0x20 ADD PUSH1 0x0 KECCAK256 SLOAD PUSH1 0x1 PUSH1 0x0 DUP8 PUSH1 0x4 DUP2 GT ISZERO PUSH2 0x551 JUMPI PUSH2 0x550 PUSH2 0x850 JUMP JUMPDEST JUMPDEST PUSH1 0x4 DUP2 GT ISZERO PUSH2 0x563 JUMPI PUSH2 0x562 PUSH2 0x850 JUMP JUMPDEST JUMPDEST DUP2 MSTORE PUSH1 0x20 ADD SWAP1 DUP2 MSTORE PUSH1 0x20 ADD PUSH1 0x0 KECCAK256 DUP2 SWAP1 SSTORE POP PUSH2 0x675 JUMP JUMPDEST DUP4 PUSH1 0x0 DUP1 DUP8 PUSH1 0x4 DUP2 GT ISZERO PUSH2 0x591 JUMPI PUSH2 0x590 PUSH2 0x850 JUMP JUMPDEST JUMPDEST PUSH1 0x4 DUP2 GT ISZERO PUSH2 0x5A3 JUMPI PUSH2 0x5A2 PUSH2 0x850 JUMP JUMPDEST JUMPDEST DUP2 MSTORE PUSH1 0x20 ADD SWAP1 DUP2 MSTORE PUSH1 0x20 ADD PUSH1 0x0 KECCAK256 SLOAD PUSH2 0x5BC SWAP2 SWAP1 PUSH2 0x961 JUMP JUMPDEST PUSH1 0x0 DUP1 DUP8 PUSH1 0x4 DUP2 GT ISZERO PUSH2 0x5D2 JUMPI PUSH2 0x5D1 PUSH2 0x850 JUMP JUMPDEST JUMPDEST PUSH1 0x4 DUP2 GT ISZERO PUSH2 0x5E4 JUMPI PUSH2 0x5E3 PUSH2 0x850 JUMP JUMPDEST JUMPDEST DUP2 MSTORE PUSH1 0x20 ADD SWAP1 DUP2 MSTORE PUSH1 0x20 ADD PUSH1 0x0 KECCAK256 DUP2 SWAP1 SSTORE POP DUP4 PUSH1 0x1 PUSH1 0x0 DUP8 PUSH1 0x4 DUP2 GT ISZERO PUSH2 0x60E JUMPI PUSH2 0x60D PUSH2 0x850 JUMP JUMPDEST JUMPDEST PUSH1 0x4 DUP2 GT ISZERO PUSH2 0x620 JUMPI PUSH2 0x61F PUSH2 0x850 JUMP JUMPDEST JUMPDEST DUP2 MSTORE PUSH1 0x20 ADD SWAP1 DUP2 MSTORE PUSH1 0x20 ADD PUSH1 0x0 KECCAK256 SLOAD PUSH2 0x639 SWAP2 SWAP1 PUSH2 0x92D JUMP JUMPDEST PUSH1 0x1 PUSH1 0x0 DUP8 PUSH1 0x4 DUP2 GT ISZERO PUSH2 0x650 JUMPI PUSH2 0x64F PUSH2 0x850 JUMP JUMPDEST JUMPDEST PUSH1 0x4 DUP2 GT ISZERO PUSH2 0x662 JUMPI PUSH2 0x661 PUSH2 0x850 JUMP JUMPDEST JUMPDEST DUP2 MSTORE PUSH1 0x20 ADD SWAP1 DUP2 MSTORE PUSH1 0x20 ADD PUSH1 0x0 KECCAK256 DUP2 SWAP1 SSTORE POP JUMPDEST DUP5 PUSH1 0x0 DUP1 DUP8 PUSH1 0x4 DUP2 GT ISZERO PUSH2 0x68C JUMPI PUSH2 0x68B PUSH2 0x850 JUMP JUMPDEST JUMPDEST PUSH1 0x4 DUP2 GT ISZERO PUSH2 0x69E JUMPI PUSH2 0x69D PUSH2 0x850 JUMP JUMPDEST JUMPDEST DUP2 MSTORE PUSH1 0x20 ADD SWAP1 DUP2 MSTORE PUSH1 0x20 ADD PUSH1 0x0 KECCAK256 SLOAD PUSH1 0x1 PUSH1 0x0 DUP9 PUSH1 0x4 DUP2 GT ISZERO PUSH2 0x6C4 JUMPI PUSH2 0x6C3 PUSH2 0x850 JUMP JUMPDEST JUMPDEST PUSH1 0x4 DUP2 GT ISZERO PUSH2 0x6D6 JUMPI PUSH2 0x6D5 PUSH2 0x850 JUMP JUMPDEST JUMPDEST DUP2 MSTORE PUSH1 0x20 ADD SWAP1 DUP2 MSTORE PUSH1 0x20 ADD PUSH1 0x0 KECCAK256 SLOAD SWAP3 POP SWAP3 POP SWAP3 POP SWAP3 POP SWAP3 POP SWAP3 JUMP JUMPDEST PUSH1 0x0 PUSH1 0x20 MSTORE DUP1 PUSH1 0x0 MSTORE PUSH1 0x40 PUSH1 0x0 KECCAK256 PUSH1 0x0 SWAP2 POP SWAP1 POP SLOAD DUP2 JUMP JUMPDEST PUSH1 0x2 PUSH1 0x20 MSTORE DUP1 PUSH1 0x0 MSTORE PUSH1 0x40 PUSH1 0x0 KECCAK256 PUSH1 0x0 SWAP2 POP SWAP1 POP SLOAD DUP2 JUMP JUMPDEST PUSH1 0x0 DUP1 REVERT JUMPDEST PUSH1 0x5 DUP2 LT PUSH2 0x734 JUMPI PUSH1 0x0 DUP1 REVERT JUMPDEST POP JUMP JUMPDEST PUSH1 0x0 DUP2 CALLDATALOAD SWAP1 POP PUSH2 0x746 DUP2 PUSH2 0x727 JUMP JUMPDEST SWAP3 SWAP2 POP POP JUMP JUMPDEST PUSH1 0x0 DUP2 SWAP1 POP SWAP2 SWAP1 POP JUMP JUMPDEST PUSH2 0x75F DUP2 PUSH2 0x74C JUMP JUMPDEST DUP2 EQ PUSH2 0x76A JUMPI PUSH1 0x0 DUP1 REVERT JUMPDEST POP JUMP JUMPDEST PUSH1 0x0 DUP2 CALLDATALOAD SWAP1 POP PUSH2 0x77C DUP2 PUSH2 0x756 JUMP JUMPDEST SWAP3 SWAP2 POP POP JUMP JUMPDEST PUSH1 0x0 DUP1 PUSH1 0x40 DUP4 DUP6 SUB SLT ISZERO PUSH2 0x799 JUMPI PUSH2 0x798 PUSH2 0x722 JUMP JUMPDEST JUMPDEST PUSH1 0x0 PUSH2 0x7A7 DUP6 DUP3 DUP7 ADD PUSH2 0x737 JUMP JUMPDEST SWAP3 POP POP PUSH1 0x20 PUSH2 0x7B8 DUP6 DUP3 DUP7 ADD PUSH2 0x76D JUMP JUMPDEST SWAP2 POP POP SWAP3 POP SWAP3 SWAP1 POP JUMP JUMPDEST PUSH2 0x7CB DUP2 PUSH2 0x74C JUMP JUMPDEST DUP3 MSTORE POP POP JUMP JUMPDEST PUSH1 0x0 PUSH1 0x60 DUP3 ADD SWAP1 POP PUSH2 0x7E6 PUSH1 0x0 DUP4 ADD DUP7 PUSH2 0x7C2 JUMP JUMPDEST PUSH2 0x7F3 PUSH1 0x20 DUP4 ADD DUP6 PUSH2 0x7C2 JUMP JUMPDEST PUSH2 0x800 PUSH1 0x40 DUP4 ADD DUP5 PUSH2 0x7C2 JUMP JUMPDEST SWAP5 SWAP4 POP POP POP POP JUMP JUMPDEST PUSH1 0x0 PUSH1 0x20 DUP3 DUP5 SUB SLT ISZERO PUSH2 0x81E JUMPI PUSH2 0x81D PUSH2 0x722 JUMP JUMPDEST JUMPDEST PUSH1 0x0 PUSH2 0x82C DUP5 DUP3 DUP6 ADD PUSH2 0x737 JUMP JUMPDEST SWAP2 POP POP SWAP3 SWAP2 POP POP JUMP JUMPDEST PUSH1 0x0 PUSH1 0x20 DUP3 ADD SWAP1 POP PUSH2 0x84A PUSH1 0x0 DUP4 ADD DUP5 PUSH2 0x7C2 JUMP JUMPDEST SWAP3 SWAP2 POP POP JUMP JUMPDEST PUSH32 0x4E487B7100000000000000000000000000000000000000000000000000000000 PUSH1 0x0 MSTORE PUSH1 0x21 PUSH1 0x4 MSTORE PUSH1 0x24 PUSH1 0x0 REVERT JUMPDEST PUSH1 0x5 DUP2 LT PUSH2 0x890 JUMPI PUSH2 0x88F PUSH2 0x850 JUMP JUMPDEST JUMPDEST POP JUMP JUMPDEST PUSH1 0x0 DUP2 SWAP1 POP PUSH2 0x8A1 DUP3 PUSH2 0x87F JUMP JUMPDEST SWAP2 SWAP1 POP JUMP JUMPDEST PUSH1 0x0 PUSH2 0x8B1 DUP3 PUSH2 0x893 JUMP JUMPDEST SWAP1 POP SWAP2 SWAP1 POP JUMP JUMPDEST PUSH2 0x8C1 DUP2 PUSH2 0x8A6 JUMP JUMPDEST DUP3 MSTORE POP POP JUMP JUMPDEST PUSH1 0x0 PUSH1 0x60 DUP3 ADD SWAP1 POP PUSH2 0x8DC PUSH1 0x0 DUP4 ADD DUP7 PUSH2 0x8B8 JUMP JUMPDEST PUSH2 0x8E9 PUSH1 0x20 DUP4 ADD DUP6 PUSH2 0x7C2 JUMP JUMPDEST PUSH2 0x8F6 PUSH1 0x40 DUP4 ADD DUP5 PUSH2 0x7C2 JUMP JUMPDEST SWAP5 SWAP4 POP POP POP POP JUMP JUMPDEST PUSH32 0x4E487B7100000000000000000000000000000000000000000000000000000000 PUSH1 0x0 MSTORE PUSH1 0x11 PUSH1 0x4 MSTORE PUSH1 0x24 PUSH1 0x0 REVERT JUMPDEST PUSH1 0x0 PUSH2 0x938 DUP3 PUSH2 0x74C JUMP JUMPDEST SWAP2 POP PUSH2 0x943 DUP4 PUSH2 0x74C JUMP JUMPDEST SWAP3 POP DUP3 DUP3 ADD SWAP1 POP DUP1 DUP3 GT ISZERO PUSH2 0x95B JUMPI PUSH2 0x95A PUSH2 0x8FE JUMP JUMPDEST JUMPDEST SWAP3 SWAP2 POP POP JUMP JUMPDEST PUSH1 0x0 PUSH2 0x96C DUP3 PUSH2 0x74C JUMP JUMPDEST SWAP2 POP PUSH2 0x977 DUP4 PUSH2 0x74C JUMP JUMPDEST SWAP3 POP DUP3 DUP3 SUB SWAP1 POP DUP2 DUP2 GT ISZERO PUSH2 0x98F JUMPI PUSH2 0x98E PUSH2 0x8FE JUMP JUMPDEST JUMPDEST SWAP3 SWAP2 POP POP JUMP INVALID LOG2 PUSH5 0x6970667358 0x22 SLT KECCAK256 SWAP14 0xDF 0x2B 0xAD RETURNDATASIZE SWAP3 0x4F PC RETURNDATACOPY MSTORE 0xE5 REVERT 0x5C 0xD9 CALLDATASIZE 0xA6 BYTE PUSH16 0xF1F3FCB2BDE33D74BFC7938D181D6473 PUSH16 0x6C63430008100033A264697066735822 SLT KECCAK256 BASEFEE SWAP7 SWAP15 0xB6 0xC0 0xE0 DUP4 SSTORE DUP14 0x2C DUP3 0xDA DUP8 0xEB SWAP12 LOG0 SMOD PUSH18 0x249E35833A545B37C92DB296FED464736F6C PUSH4 0x43000810 STOP CALLER "
		},
		"gasEstimates": {
			"creation": {
				"codeDepositCost": "1813400",
				"executionCost": "1912",
				"totalCost": "1815312"
			},
			"external": {
				"beforeAll()": "infinite",
				"testFillDish5()": "infinite",
				"testFillDish50()": "infinite",
				"testGetDish3()": "infinite",
				"testGetDish4()": "infinite"
			}
		},
		"methodIdentifiers": {
			"beforeAll()": "7fea0d4b",
			"testFillDish5()": "2ee079a9",
			"testFillDish50()": "7bbb8bd0",
			"testGetDish3()": "73fb1a90",
			"testGetDish4()": "f979254a"
		}
	},
	"abi": [
		{
			"inputs": [],
			"name": "beforeAll",
			"outputs": [],
			"stateMutability": "nonpayable",
			"type": "function"
		},
		{
			"inputs": [],
			"name": "testFillDish5",
			"outputs": [],
			"stateMutability": "nonpayable",
			"type": "function"
		},
		{
			"inputs": [],
			"name": "testFillDish50",
			"outputs": [],
			"stateMutability": "nonpayable",
			"type": "function"
		},
		{
			"inputs": [],
			"name": "testGetDish3",
			"outputs": [],
			"stateMutability": "nonpayable",
			"type": "function"
		},
		{
			"inputs": [],
			"name": "testGetDish4",
			"outputs": [],
			"stateMutability": "nonpayable",
			"type": "function"
		}
	]
}