{
	"exercices/rush/Distributeur.sol": {
		"Distributeur": {
			"abi": [
				{
					"inputs": [
						{
							"internalType": "enum Distributeur.Dish",
							"name": "",
							"type": "uint8"
						}
					],
					"name": "dishQtyAdded",
					"outputs": [
						{
							"internalType": "uint256",
							"name": "",
							"type": "uint256"
						}
					],
					"stateMutability": "view",
					"type": "function"
				},
				{
					"inputs": [
						{
							"internalType": "enum Distributeur.Dish",
							"name": "",
							"type": "uint8"
						}
					],
					"name": "dishQtyGived",
					"outputs": [
						{
							"internalType": "uint256",
							"name": "",
							"type": "uint256"
						}
					],
					"stateMutability": "view",
					"type": "function"
				},
				{
					"inputs": [
						{
							"internalType": "enum Distributeur.Dish",
							"name": "",
							"type": "uint8"
						}
					],
					"name": "dishQuantity",
					"outputs": [
						{
							"internalType": "uint256",
							"name": "",
							"type": "uint256"
						}
					],
					"stateMutability": "view",
					"type": "function"
				},
				{
					"inputs": [
						{
							"internalType": "enum Distributeur.Dish",
							"name": "met",
							"type": "uint8"
						},
						{
							"internalType": "uint256",
							"name": "qte",
							"type": "uint256"
						}
					],
					"name": "fillDish",
					"outputs": [
						{
							"internalType": "uint256",
							"name": "",
							"type": "uint256"
						},
						{
							"internalType": "uint256",
							"name": "",
							"type": "uint256"
						},
						{
							"internalType": "uint256",
							"name": "",
							"type": "uint256"
						}
					],
					"stateMutability": "nonpayable",
					"type": "function"
				},
				{
					"inputs": [
						{
							"internalType": "enum Distributeur.Dish",
							"name": "met",
							"type": "uint8"
						},
						{
							"internalType": "uint256",
							"name": "qty",
							"type": "uint256"
						}
					],
					"name": "getDish",
					"outputs": [
						{
							"internalType": "enum Distributeur.Dish",
							"name": "",
							"type": "uint8"
						},
						{
							"internalType": "uint256",
							"name": "",
							"type": "uint256"
						},
						{
							"internalType": "uint256",
							"name": "",
							"type": "uint256"
						}
					],
					"stateMutability": "nonpayable",
					"type": "function"
				}
			],
			"devdoc": {
				"kind": "dev",
				"methods": {},
				"version": 1
			},
			"evm": {
				"assembly": "    /* \"exercices/rush/Distributeur.sol\":66:1712  contract Distributeur {... */\n  mstore(0x40, 0x80)\n  callvalue\n  dup1\n  iszero\n  tag_1\n  jumpi\n  0x00\n  dup1\n  revert\ntag_1:\n  pop\n  dataSize(sub_0)\n  dup1\n  dataOffset(sub_0)\n  0x00\n  codecopy\n  0x00\n  return\nstop\n\nsub_0: assembly {\n        /* \"exercices/rush/Distributeur.sol\":66:1712  contract Distributeur {... */\n      mstore(0x40, 0x80)\n      callvalue\n      dup1\n      iszero\n      tag_1\n      jumpi\n      0x00\n      dup1\n      revert\n    tag_1:\n      pop\n      jumpi(tag_2, lt(calldatasize, 0x04))\n      shr(0xe0, calldataload(0x00))\n      dup1\n      0x8d65df2a\n      eq\n      tag_3\n      jumpi\n      dup1\n      0xad940f00\n      eq\n      tag_4\n      jumpi\n      dup1\n      0xc332c3be\n      eq\n      tag_5\n      jumpi\n      dup1\n      0xc79cf758\n      eq\n      tag_6\n      jumpi\n      dup1\n      0xfa66c1ba\n      eq\n      tag_7\n      jumpi\n    tag_2:\n      0x00\n      dup1\n      revert\n        /* \"exercices/rush/Distributeur.sol\":1111:1707  function fillDish(Dish met, uint qte) public returns(uint, uint, uint){... */\n    tag_3:\n      tag_8\n      0x04\n      dup1\n      calldatasize\n      sub\n      dup2\n      add\n      swap1\n      tag_9\n      swap2\n      swap1\n      tag_10\n      jump\t// in\n    tag_9:\n      tag_11\n      jump\t// in\n    tag_8:\n      mload(0x40)\n      tag_12\n      swap4\n      swap3\n      swap2\n      swap1\n      tag_13\n      jump\t// in\n    tag_12:\n      mload(0x40)\n      dup1\n      swap2\n      sub\n      swap1\n      return\n        /* \"exercices/rush/Distributeur.sol\":388:430  mapping (Dish => uint) public dishQtyGived */\n    tag_4:\n      tag_14\n      0x04\n      dup1\n      calldatasize\n      sub\n      dup2\n      add\n      swap1\n      tag_15\n      swap2\n      swap1\n      tag_16\n      jump\t// in\n    tag_15:\n      tag_17\n      jump\t// in\n    tag_14:\n      mload(0x40)\n      tag_18\n      swap2\n      swap1\n      tag_19\n      jump\t// in\n    tag_18:\n      mload(0x40)\n      dup1\n      swap2\n      sub\n      swap1\n      return\n        /* \"exercices/rush/Distributeur.sol\":525:1093  function getDish(Dish met, uint qty) public returns(Dish, uint, uint){... */\n    tag_5:\n      tag_20\n      0x04\n      dup1\n      calldatasize\n      sub\n      dup2\n      add\n      swap1\n      tag_21\n      swap2\n      swap1\n      tag_10\n      jump\t// in\n    tag_21:\n      tag_22\n      jump\t// in\n    tag_20:\n      mload(0x40)\n      tag_23\n      swap4\n      swap3\n      swap2\n      swap1\n      tag_24\n      jump\t// in\n    tag_23:\n      mload(0x40)\n      dup1\n      swap2\n      sub\n      swap1\n      return\n        /* \"exercices/rush/Distributeur.sol\":339:381  mapping (Dish => uint) public dishQuantity */\n    tag_6:\n      tag_25\n      0x04\n      dup1\n      calldatasize\n      sub\n      dup2\n      add\n      swap1\n      tag_26\n      swap2\n      swap1\n      tag_16\n      jump\t// in\n    tag_26:\n      tag_27\n      jump\t// in\n    tag_25:\n      mload(0x40)\n      tag_28\n      swap2\n      swap1\n      tag_19\n      jump\t// in\n    tag_28:\n      mload(0x40)\n      dup1\n      swap2\n      sub\n      swap1\n      return\n        /* \"exercices/rush/Distributeur.sol\":437:479  mapping (Dish => uint) public dishQtyAdded */\n    tag_7:\n      tag_29\n      0x04\n      dup1\n      calldatasize\n      sub\n      dup2\n      add\n      swap1\n      tag_30\n      swap2\n      swap1\n      tag_16\n      jump\t// in\n    tag_30:\n      tag_31\n      jump\t// in\n    tag_29:\n      mload(0x40)\n      tag_32\n      swap2\n      swap1\n      tag_19\n      jump\t// in\n    tag_32:\n      mload(0x40)\n      dup1\n      swap2\n      sub\n      swap1\n      return\n        /* \"exercices/rush/Distributeur.sol\":1111:1707  function fillDish(Dish met, uint qte) public returns(uint, uint, uint){... */\n    tag_11:\n        /* \"exercices/rush/Distributeur.sol\":1164:1168  uint */\n      0x00\n        /* \"exercices/rush/Distributeur.sol\":1170:1174  uint */\n      dup1\n        /* \"exercices/rush/Distributeur.sol\":1176:1180  uint */\n      0x00\n        /* \"exercices/rush/Distributeur.sol\":1192:1202  uint added */\n      dup1\n        /* \"exercices/rush/Distributeur.sol\":1306:1308  42 */\n      0x2a\n        /* \"exercices/rush/Distributeur.sol\":1300:1303  qte */\n      dup6\n        /* \"exercices/rush/Distributeur.sol\":1280:1292  dishQuantity */\n      0x00\n        /* \"exercices/rush/Distributeur.sol\":1280:1297  dishQuantity[met] */\n      dup1\n        /* \"exercices/rush/Distributeur.sol\":1293:1296  met */\n      dup10\n        /* \"exercices/rush/Distributeur.sol\":1280:1297  dishQuantity[met] */\n      0x04\n      dup2\n      gt\n      iszero\n      tag_34\n      jumpi\n      tag_35\n      tag_36\n      jump\t// in\n    tag_35:\n    tag_34:\n      0x04\n      dup2\n      gt\n      iszero\n      tag_37\n      jumpi\n      tag_38\n      tag_36\n      jump\t// in\n    tag_38:\n    tag_37:\n      dup2\n      mstore\n      0x20\n      add\n      swap1\n      dup2\n      mstore\n      0x20\n      add\n      0x00\n      keccak256\n      sload\n        /* \"exercices/rush/Distributeur.sol\":1280:1303  dishQuantity[met] + qte */\n      tag_39\n      swap2\n      swap1\n      tag_40\n      jump\t// in\n    tag_39:\n        /* \"exercices/rush/Distributeur.sol\":1280:1308  dishQuantity[met] + qte > 42 */\n      gt\n        /* \"exercices/rush/Distributeur.sol\":1277:1638  if(dishQuantity[met] + qte > 42){... */\n      iszero\n      tag_41\n      jumpi\n        /* \"exercices/rush/Distributeur.sol\":1365:1367  42 */\n      0x2a\n        /* \"exercices/rush/Distributeur.sol\":1359:1362  qte */\n      dup6\n        /* \"exercices/rush/Distributeur.sol\":1339:1351  dishQuantity */\n      0x00\n        /* \"exercices/rush/Distributeur.sol\":1339:1356  dishQuantity[met] */\n      dup1\n        /* \"exercices/rush/Distributeur.sol\":1352:1355  met */\n      dup10\n        /* \"exercices/rush/Distributeur.sol\":1339:1356  dishQuantity[met] */\n      0x04\n      dup2\n      gt\n      iszero\n      tag_42\n      jumpi\n      tag_43\n      tag_36\n      jump\t// in\n    tag_43:\n    tag_42:\n      0x04\n      dup2\n      gt\n      iszero\n      tag_44\n      jumpi\n      tag_45\n      tag_36\n      jump\t// in\n    tag_45:\n    tag_44:\n      dup2\n      mstore\n      0x20\n      add\n      swap1\n      dup2\n      mstore\n      0x20\n      add\n      0x00\n      keccak256\n      sload\n        /* \"exercices/rush/Distributeur.sol\":1339:1362  dishQuantity[met] + qte */\n      tag_46\n      swap2\n      swap1\n      tag_40\n      jump\t// in\n    tag_46:\n        /* \"exercices/rush/Distributeur.sol\":1339:1367  dishQuantity[met] + qte - 42 */\n      tag_47\n      swap2\n      swap1\n      tag_48\n      jump\t// in\n    tag_47:\n        /* \"exercices/rush/Distributeur.sol\":1332:1335  qte */\n      dup6\n        /* \"exercices/rush/Distributeur.sol\":1332:1368  qte - (dishQuantity[met] + qte - 42) */\n      tag_49\n      swap2\n      swap1\n      tag_48\n      jump\t// in\n    tag_49:\n        /* \"exercices/rush/Distributeur.sol\":1324:1368  added = qte - (dishQuantity[met] + qte - 42) */\n      swap1\n      pop\n        /* \"exercices/rush/Distributeur.sol\":1423:1428  added */\n      dup1\n        /* \"exercices/rush/Distributeur.sol\":1403:1415  dishQtyAdded */\n      0x02\n        /* \"exercices/rush/Distributeur.sol\":1403:1420  dishQtyAdded[met] */\n      0x00\n        /* \"exercices/rush/Distributeur.sol\":1416:1419  met */\n      dup9\n        /* \"exercices/rush/Distributeur.sol\":1403:1420  dishQtyAdded[met] */\n      0x04\n      dup2\n      gt\n      iszero\n      tag_50\n      jumpi\n      tag_51\n      tag_36\n      jump\t// in\n    tag_51:\n    tag_50:\n      0x04\n      dup2\n      gt\n      iszero\n      tag_52\n      jumpi\n      tag_53\n      tag_36\n      jump\t// in\n    tag_53:\n    tag_52:\n      dup2\n      mstore\n      0x20\n      add\n      swap1\n      dup2\n      mstore\n      0x20\n      add\n      0x00\n      keccak256\n      sload\n        /* \"exercices/rush/Distributeur.sol\":1403:1428  dishQtyAdded[met] + added */\n      tag_54\n      swap2\n      swap1\n      tag_40\n      jump\t// in\n    tag_54:\n        /* \"exercices/rush/Distributeur.sol\":1383:1395  dishQtyAdded */\n      0x02\n        /* \"exercices/rush/Distributeur.sol\":1383:1400  dishQtyAdded[met] */\n      0x00\n        /* \"exercices/rush/Distributeur.sol\":1396:1399  met */\n      dup9\n        /* \"exercices/rush/Distributeur.sol\":1383:1400  dishQtyAdded[met] */\n      0x04\n      dup2\n      gt\n      iszero\n      tag_55\n      jumpi\n      tag_56\n      tag_36\n      jump\t// in\n    tag_56:\n    tag_55:\n      0x04\n      dup2\n      gt\n      iszero\n      tag_57\n      jumpi\n      tag_58\n      tag_36\n      jump\t// in\n    tag_58:\n    tag_57:\n      dup2\n      mstore\n      0x20\n      add\n      swap1\n      dup2\n      mstore\n      0x20\n      add\n      0x00\n      keccak256\n        /* \"exercices/rush/Distributeur.sol\":1383:1428  dishQtyAdded[met] = dishQtyAdded[met] + added */\n      dup2\n      swap1\n      sstore\n      pop\n        /* \"exercices/rush/Distributeur.sol\":1463:1465  42 */\n      0x2a\n        /* \"exercices/rush/Distributeur.sol\":1443:1455  dishQuantity */\n      0x00\n        /* \"exercices/rush/Distributeur.sol\":1443:1460  dishQuantity[met] */\n      dup1\n        /* \"exercices/rush/Distributeur.sol\":1456:1459  met */\n      dup9\n        /* \"exercices/rush/Distributeur.sol\":1443:1460  dishQuantity[met] */\n      0x04\n      dup2\n      gt\n      iszero\n      tag_59\n      jumpi\n      tag_60\n      tag_36\n      jump\t// in\n    tag_60:\n    tag_59:\n      0x04\n      dup2\n      gt\n      iszero\n      tag_61\n      jumpi\n      tag_62\n      tag_36\n      jump\t// in\n    tag_62:\n    tag_61:\n      dup2\n      mstore\n      0x20\n      add\n      swap1\n      dup2\n      mstore\n      0x20\n      add\n      0x00\n      keccak256\n        /* \"exercices/rush/Distributeur.sol\":1443:1465  dishQuantity[met] = 42 */\n      dup2\n      swap1\n      sstore\n      pop\n        /* \"exercices/rush/Distributeur.sol\":1277:1638  if(dishQuantity[met] + qte > 42){... */\n      jump(tag_63)\n    tag_41:\n        /* \"exercices/rush/Distributeur.sol\":1506:1509  qte */\n      dup5\n        /* \"exercices/rush/Distributeur.sol\":1498:1509  added = qte */\n      swap1\n      pop\n        /* \"exercices/rush/Distributeur.sol\":1564:1567  qte */\n      dup5\n        /* \"exercices/rush/Distributeur.sol\":1544:1556  dishQuantity */\n      0x00\n        /* \"exercices/rush/Distributeur.sol\":1544:1561  dishQuantity[met] */\n      dup1\n        /* \"exercices/rush/Distributeur.sol\":1557:1560  met */\n      dup9\n        /* \"exercices/rush/Distributeur.sol\":1544:1561  dishQuantity[met] */\n      0x04\n      dup2\n      gt\n      iszero\n      tag_64\n      jumpi\n      tag_65\n      tag_36\n      jump\t// in\n    tag_65:\n    tag_64:\n      0x04\n      dup2\n      gt\n      iszero\n      tag_66\n      jumpi\n      tag_67\n      tag_36\n      jump\t// in\n    tag_67:\n    tag_66:\n      dup2\n      mstore\n      0x20\n      add\n      swap1\n      dup2\n      mstore\n      0x20\n      add\n      0x00\n      keccak256\n      sload\n        /* \"exercices/rush/Distributeur.sol\":1544:1567  dishQuantity[met] + qte */\n      tag_68\n      swap2\n      swap1\n      tag_40\n      jump\t// in\n    tag_68:\n        /* \"exercices/rush/Distributeur.sol\":1524:1536  dishQuantity */\n      0x00\n        /* \"exercices/rush/Distributeur.sol\":1524:1541  dishQuantity[met] */\n      dup1\n        /* \"exercices/rush/Distributeur.sol\":1537:1540  met */\n      dup9\n        /* \"exercices/rush/Distributeur.sol\":1524:1541  dishQuantity[met] */\n      0x04\n      dup2\n      gt\n      iszero\n      tag_69\n      jumpi\n      tag_70\n      tag_36\n      jump\t// in\n    tag_70:\n    tag_69:\n      0x04\n      dup2\n      gt\n      iszero\n      tag_71\n      jumpi\n      tag_72\n      tag_36\n      jump\t// in\n    tag_72:\n    tag_71:\n      dup2\n      mstore\n      0x20\n      add\n      swap1\n      dup2\n      mstore\n      0x20\n      add\n      0x00\n      keccak256\n        /* \"exercices/rush/Distributeur.sol\":1524:1567  dishQuantity[met] = dishQuantity[met] + qte */\n      dup2\n      swap1\n      sstore\n      pop\n        /* \"exercices/rush/Distributeur.sol\":1623:1626  qte */\n      dup5\n        /* \"exercices/rush/Distributeur.sol\":1603:1615  dishQtyAdded */\n      0x02\n        /* \"exercices/rush/Distributeur.sol\":1603:1620  dishQtyAdded[met] */\n      0x00\n        /* \"exercices/rush/Distributeur.sol\":1616:1619  met */\n      dup9\n        /* \"exercices/rush/Distributeur.sol\":1603:1620  dishQtyAdded[met] */\n      0x04\n      dup2\n      gt\n      iszero\n      tag_73\n      jumpi\n      tag_74\n      tag_36\n      jump\t// in\n    tag_74:\n    tag_73:\n      0x04\n      dup2\n      gt\n      iszero\n      tag_75\n      jumpi\n      tag_76\n      tag_36\n      jump\t// in\n    tag_76:\n    tag_75:\n      dup2\n      mstore\n      0x20\n      add\n      swap1\n      dup2\n      mstore\n      0x20\n      add\n      0x00\n      keccak256\n      sload\n        /* \"exercices/rush/Distributeur.sol\":1603:1626  dishQtyAdded[met] + qte */\n      tag_77\n      swap2\n      swap1\n      tag_40\n      jump\t// in\n    tag_77:\n        /* \"exercices/rush/Distributeur.sol\":1582:1594  dishQtyAdded */\n      0x02\n        /* \"exercices/rush/Distributeur.sol\":1582:1599  dishQtyAdded[met] */\n      0x00\n        /* \"exercices/rush/Distributeur.sol\":1595:1598  met */\n      dup9\n        /* \"exercices/rush/Distributeur.sol\":1582:1599  dishQtyAdded[met] */\n      0x04\n      dup2\n      gt\n      iszero\n      tag_78\n      jumpi\n      tag_79\n      tag_36\n      jump\t// in\n    tag_79:\n    tag_78:\n      0x04\n      dup2\n      gt\n      iszero\n      tag_80\n      jumpi\n      tag_81\n      tag_36\n      jump\t// in\n    tag_81:\n    tag_80:\n      dup2\n      mstore\n      0x20\n      add\n      swap1\n      dup2\n      mstore\n      0x20\n      add\n      0x00\n      keccak256\n        /* \"exercices/rush/Distributeur.sol\":1582:1626  dishQtyAdded[met] =  dishQtyAdded[met] + qte */\n      dup2\n      swap1\n      sstore\n      pop\n        /* \"exercices/rush/Distributeur.sol\":1277:1638  if(dishQuantity[met] + qte > 42){... */\n    tag_63:\n        /* \"exercices/rush/Distributeur.sol\":1657:1669  dishQuantity */\n      0x00\n        /* \"exercices/rush/Distributeur.sol\":1657:1674  dishQuantity[met] */\n      dup1\n        /* \"exercices/rush/Distributeur.sol\":1670:1673  met */\n      dup8\n        /* \"exercices/rush/Distributeur.sol\":1657:1674  dishQuantity[met] */\n      0x04\n      dup2\n      gt\n      iszero\n      tag_82\n      jumpi\n      tag_83\n      tag_36\n      jump\t// in\n    tag_83:\n    tag_82:\n      0x04\n      dup2\n      gt\n      iszero\n      tag_84\n      jumpi\n      tag_85\n      tag_36\n      jump\t// in\n    tag_85:\n    tag_84:\n      dup2\n      mstore\n      0x20\n      add\n      swap1\n      dup2\n      mstore\n      0x20\n      add\n      0x00\n      keccak256\n      sload\n        /* \"exercices/rush/Distributeur.sol\":1675:1687  dishQtyAdded */\n      0x02\n        /* \"exercices/rush/Distributeur.sol\":1675:1692  dishQtyAdded[met] */\n      0x00\n        /* \"exercices/rush/Distributeur.sol\":1688:1691  met */\n      dup9\n        /* \"exercices/rush/Distributeur.sol\":1675:1692  dishQtyAdded[met] */\n      0x04\n      dup2\n      gt\n      iszero\n      tag_86\n      jumpi\n      tag_87\n      tag_36\n      jump\t// in\n    tag_87:\n    tag_86:\n      0x04\n      dup2\n      gt\n      iszero\n      tag_88\n      jumpi\n      tag_89\n      tag_36\n      jump\t// in\n    tag_89:\n    tag_88:\n      dup2\n      mstore\n      0x20\n      add\n      swap1\n      dup2\n      mstore\n      0x20\n      add\n      0x00\n      keccak256\n      sload\n        /* \"exercices/rush/Distributeur.sol\":1693:1698  added */\n      dup3\n        /* \"exercices/rush/Distributeur.sol\":1650:1699  return(dishQuantity[met],dishQtyAdded[met],added) */\n      swap4\n      pop\n      swap4\n      pop\n      swap4\n      pop\n      pop\n        /* \"exercices/rush/Distributeur.sol\":1111:1707  function fillDish(Dish met, uint qte) public returns(uint, uint, uint){... */\n      swap3\n      pop\n      swap3\n      pop\n      swap3\n      jump\t// out\n        /* \"exercices/rush/Distributeur.sol\":388:430  mapping (Dish => uint) public dishQtyGived */\n    tag_17:\n      mstore(0x20, 0x01)\n      dup1\n      0x00\n      mstore\n      keccak256(0x00, 0x40)\n      0x00\n      swap2\n      pop\n      swap1\n      pop\n      sload\n      dup2\n      jump\t// out\n        /* \"exercices/rush/Distributeur.sol\":525:1093  function getDish(Dish met, uint qty) public returns(Dish, uint, uint){... */\n    tag_22:\n        /* \"exercices/rush/Distributeur.sol\":577:581  Dish */\n      0x00\n        /* \"exercices/rush/Distributeur.sol\":583:587  uint */\n      dup1\n        /* \"exercices/rush/Distributeur.sol\":589:593  uint */\n      0x00\n        /* \"exercices/rush/Distributeur.sol\":744:747  qty */\n      dup4\n        /* \"exercices/rush/Distributeur.sol\":724:736  dishQuantity */\n      0x00\n        /* \"exercices/rush/Distributeur.sol\":724:741  dishQuantity[met] */\n      dup1\n        /* \"exercices/rush/Distributeur.sol\":737:740  met */\n      dup8\n        /* \"exercices/rush/Distributeur.sol\":724:741  dishQuantity[met] */\n      0x04\n      dup2\n      gt\n      iszero\n      tag_91\n      jumpi\n      tag_92\n      tag_36\n      jump\t// in\n    tag_92:\n    tag_91:\n      0x04\n      dup2\n      gt\n      iszero\n      tag_93\n      jumpi\n      tag_94\n      tag_36\n      jump\t// in\n    tag_94:\n    tag_93:\n      dup2\n      mstore\n      0x20\n      add\n      swap1\n      dup2\n      mstore\n      0x20\n      add\n      0x00\n      keccak256\n      sload\n        /* \"exercices/rush/Distributeur.sol\":724:747  dishQuantity[met] < qty */\n      lt\n        /* \"exercices/rush/Distributeur.sol\":721:1001  if(dishQuantity[met] < qty ){... */\n      iszero\n      tag_95\n      jumpi\n        /* \"exercices/rush/Distributeur.sol\":784:796  dishQuantity */\n      0x00\n        /* \"exercices/rush/Distributeur.sol\":784:801  dishQuantity[met] */\n      dup1\n        /* \"exercices/rush/Distributeur.sol\":797:800  met */\n      dup7\n        /* \"exercices/rush/Distributeur.sol\":784:801  dishQuantity[met] */\n      0x04\n      dup2\n      gt\n      iszero\n      tag_96\n      jumpi\n      tag_97\n      tag_36\n      jump\t// in\n    tag_97:\n    tag_96:\n      0x04\n      dup2\n      gt\n      iszero\n      tag_98\n      jumpi\n      tag_99\n      tag_36\n      jump\t// in\n    tag_99:\n    tag_98:\n      dup2\n      mstore\n      0x20\n      add\n      swap1\n      dup2\n      mstore\n      0x20\n      add\n      0x00\n      keccak256\n      sload\n        /* \"exercices/rush/Distributeur.sol\":764:776  dishQuantity */\n      0x00\n        /* \"exercices/rush/Distributeur.sol\":764:781  dishQuantity[met] */\n      dup1\n        /* \"exercices/rush/Distributeur.sol\":777:780  met */\n      dup8\n        /* \"exercices/rush/Distributeur.sol\":764:781  dishQuantity[met] */\n      0x04\n      dup2\n      gt\n      iszero\n      tag_100\n      jumpi\n      tag_101\n      tag_36\n      jump\t// in\n    tag_101:\n    tag_100:\n      0x04\n      dup2\n      gt\n      iszero\n      tag_102\n      jumpi\n      tag_103\n      tag_36\n      jump\t// in\n    tag_103:\n    tag_102:\n      dup2\n      mstore\n      0x20\n      add\n      swap1\n      dup2\n      mstore\n      0x20\n      add\n      0x00\n      keccak256\n        /* \"exercices/rush/Distributeur.sol\":764:801  dishQuantity[met] = dishQuantity[met] */\n      dup2\n      swap1\n      sstore\n      pop\n        /* \"exercices/rush/Distributeur.sol\":836:848  dishQtyGived */\n      0x01\n        /* \"exercices/rush/Distributeur.sol\":836:853  dishQtyGived[met] */\n      0x00\n        /* \"exercices/rush/Distributeur.sol\":849:852  met */\n      dup7\n        /* \"exercices/rush/Distributeur.sol\":836:853  dishQtyGived[met] */\n      0x04\n      dup2\n      gt\n      iszero\n      tag_104\n      jumpi\n      tag_105\n      tag_36\n      jump\t// in\n    tag_105:\n    tag_104:\n      0x04\n      dup2\n      gt\n      iszero\n      tag_106\n      jumpi\n      tag_107\n      tag_36\n      jump\t// in\n    tag_107:\n    tag_106:\n      dup2\n      mstore\n      0x20\n      add\n      swap1\n      dup2\n      mstore\n      0x20\n      add\n      0x00\n      keccak256\n      sload\n        /* \"exercices/rush/Distributeur.sol\":816:828  dishQtyGived */\n      0x01\n        /* \"exercices/rush/Distributeur.sol\":816:833  dishQtyGived[met] */\n      0x00\n        /* \"exercices/rush/Distributeur.sol\":829:832  met */\n      dup8\n        /* \"exercices/rush/Distributeur.sol\":816:833  dishQtyGived[met] */\n      0x04\n      dup2\n      gt\n      iszero\n      tag_108\n      jumpi\n      tag_109\n      tag_36\n      jump\t// in\n    tag_109:\n    tag_108:\n      0x04\n      dup2\n      gt\n      iszero\n      tag_110\n      jumpi\n      tag_111\n      tag_36\n      jump\t// in\n    tag_111:\n    tag_110:\n      dup2\n      mstore\n      0x20\n      add\n      swap1\n      dup2\n      mstore\n      0x20\n      add\n      0x00\n      keccak256\n        /* \"exercices/rush/Distributeur.sol\":816:853  dishQtyGived[met] = dishQtyGived[met] */\n      dup2\n      swap1\n      sstore\n      pop\n        /* \"exercices/rush/Distributeur.sol\":721:1001  if(dishQuantity[met] < qty ){... */\n      jump(tag_112)\n    tag_95:\n        /* \"exercices/rush/Distributeur.sol\":928:931  qty */\n      dup4\n        /* \"exercices/rush/Distributeur.sol\":908:920  dishQuantity */\n      0x00\n        /* \"exercices/rush/Distributeur.sol\":908:925  dishQuantity[met] */\n      dup1\n        /* \"exercices/rush/Distributeur.sol\":921:924  met */\n      dup8\n        /* \"exercices/rush/Distributeur.sol\":908:925  dishQuantity[met] */\n      0x04\n      dup2\n      gt\n      iszero\n      tag_113\n      jumpi\n      tag_114\n      tag_36\n      jump\t// in\n    tag_114:\n    tag_113:\n      0x04\n      dup2\n      gt\n      iszero\n      tag_115\n      jumpi\n      tag_116\n      tag_36\n      jump\t// in\n    tag_116:\n    tag_115:\n      dup2\n      mstore\n      0x20\n      add\n      swap1\n      dup2\n      mstore\n      0x20\n      add\n      0x00\n      keccak256\n      sload\n        /* \"exercices/rush/Distributeur.sol\":908:931  dishQuantity[met] - qty */\n      tag_117\n      swap2\n      swap1\n      tag_48\n      jump\t// in\n    tag_117:\n        /* \"exercices/rush/Distributeur.sol\":888:900  dishQuantity */\n      0x00\n        /* \"exercices/rush/Distributeur.sol\":888:905  dishQuantity[met] */\n      dup1\n        /* \"exercices/rush/Distributeur.sol\":901:904  met */\n      dup8\n        /* \"exercices/rush/Distributeur.sol\":888:905  dishQuantity[met] */\n      0x04\n      dup2\n      gt\n      iszero\n      tag_118\n      jumpi\n      tag_119\n      tag_36\n      jump\t// in\n    tag_119:\n    tag_118:\n      0x04\n      dup2\n      gt\n      iszero\n      tag_120\n      jumpi\n      tag_121\n      tag_36\n      jump\t// in\n    tag_121:\n    tag_120:\n      dup2\n      mstore\n      0x20\n      add\n      swap1\n      dup2\n      mstore\n      0x20\n      add\n      0x00\n      keccak256\n        /* \"exercices/rush/Distributeur.sol\":888:931  dishQuantity[met] = dishQuantity[met] - qty */\n      dup2\n      swap1\n      sstore\n      pop\n        /* \"exercices/rush/Distributeur.sol\":986:989  qty */\n      dup4\n        /* \"exercices/rush/Distributeur.sol\":966:978  dishQtyGived */\n      0x01\n        /* \"exercices/rush/Distributeur.sol\":966:983  dishQtyGived[met] */\n      0x00\n        /* \"exercices/rush/Distributeur.sol\":979:982  met */\n      dup8\n        /* \"exercices/rush/Distributeur.sol\":966:983  dishQtyGived[met] */\n      0x04\n      dup2\n      gt\n      iszero\n      tag_122\n      jumpi\n      tag_123\n      tag_36\n      jump\t// in\n    tag_123:\n    tag_122:\n      0x04\n      dup2\n      gt\n      iszero\n      tag_124\n      jumpi\n      tag_125\n      tag_36\n      jump\t// in\n    tag_125:\n    tag_124:\n      dup2\n      mstore\n      0x20\n      add\n      swap1\n      dup2\n      mstore\n      0x20\n      add\n      0x00\n      keccak256\n      sload\n        /* \"exercices/rush/Distributeur.sol\":966:989  dishQtyGived[met] + qty */\n      tag_126\n      swap2\n      swap1\n      tag_40\n      jump\t// in\n    tag_126:\n        /* \"exercices/rush/Distributeur.sol\":946:958  dishQtyGived */\n      0x01\n        /* \"exercices/rush/Distributeur.sol\":946:963  dishQtyGived[met] */\n      0x00\n        /* \"exercices/rush/Distributeur.sol\":959:962  met */\n      dup8\n        /* \"exercices/rush/Distributeur.sol\":946:963  dishQtyGived[met] */\n      0x04\n      dup2\n      gt\n      iszero\n      tag_127\n      jumpi\n      tag_128\n      tag_36\n      jump\t// in\n    tag_128:\n    tag_127:\n      0x04\n      dup2\n      gt\n      iszero\n      tag_129\n      jumpi\n      tag_130\n      tag_36\n      jump\t// in\n    tag_130:\n    tag_129:\n      dup2\n      mstore\n      0x20\n      add\n      swap1\n      dup2\n      mstore\n      0x20\n      add\n      0x00\n      keccak256\n        /* \"exercices/rush/Distributeur.sol\":946:989  dishQtyGived[met] = dishQtyGived[met] + qty */\n      dup2\n      swap1\n      sstore\n      pop\n        /* \"exercices/rush/Distributeur.sol\":721:1001  if(dishQuantity[met] < qty ){... */\n    tag_112:\n        /* \"exercices/rush/Distributeur.sol\":1043:1046  met */\n      dup5\n        /* \"exercices/rush/Distributeur.sol\":1048:1060  dishQuantity */\n      0x00\n        /* \"exercices/rush/Distributeur.sol\":1048:1065  dishQuantity[met] */\n      dup1\n        /* \"exercices/rush/Distributeur.sol\":1061:1064  met */\n      dup8\n        /* \"exercices/rush/Distributeur.sol\":1048:1065  dishQuantity[met] */\n      0x04\n      dup2\n      gt\n      iszero\n      tag_131\n      jumpi\n      tag_132\n      tag_36\n      jump\t// in\n    tag_132:\n    tag_131:\n      0x04\n      dup2\n      gt\n      iszero\n      tag_133\n      jumpi\n      tag_134\n      tag_36\n      jump\t// in\n    tag_134:\n    tag_133:\n      dup2\n      mstore\n      0x20\n      add\n      swap1\n      dup2\n      mstore\n      0x20\n      add\n      0x00\n      keccak256\n      sload\n        /* \"exercices/rush/Distributeur.sol\":1067:1079  dishQtyGived */\n      0x01\n        /* \"exercices/rush/Distributeur.sol\":1067:1084  dishQtyGived[met] */\n      0x00\n        /* \"exercices/rush/Distributeur.sol\":1080:1083  met */\n      dup9\n        /* \"exercices/rush/Distributeur.sol\":1067:1084  dishQtyGived[met] */\n      0x04\n      dup2\n      gt\n      iszero\n      tag_135\n      jumpi\n      tag_136\n      tag_36\n      jump\t// in\n    tag_136:\n    tag_135:\n      0x04\n      dup2\n      gt\n      iszero\n      tag_137\n      jumpi\n      tag_138\n      tag_36\n      jump\t// in\n    tag_138:\n    tag_137:\n      dup2\n      mstore\n      0x20\n      add\n      swap1\n      dup2\n      mstore\n      0x20\n      add\n      0x00\n      keccak256\n      sload\n        /* \"exercices/rush/Distributeur.sol\":1035:1085  return (met, dishQuantity[met], dishQtyGived[met]) */\n      swap3\n      pop\n      swap3\n      pop\n      swap3\n      pop\n        /* \"exercices/rush/Distributeur.sol\":525:1093  function getDish(Dish met, uint qty) public returns(Dish, uint, uint){... */\n      swap3\n      pop\n      swap3\n      pop\n      swap3\n      jump\t// out\n        /* \"exercices/rush/Distributeur.sol\":339:381  mapping (Dish => uint) public dishQuantity */\n    tag_27:\n      mstore(0x20, 0x00)\n      dup1\n      0x00\n      mstore\n      keccak256(0x00, 0x40)\n      0x00\n      swap2\n      pop\n      swap1\n      pop\n      sload\n      dup2\n      jump\t// out\n        /* \"exercices/rush/Distributeur.sol\":437:479  mapping (Dish => uint) public dishQtyAdded */\n    tag_31:\n      mstore(0x20, 0x02)\n      dup1\n      0x00\n      mstore\n      keccak256(0x00, 0x40)\n      0x00\n      swap2\n      pop\n      swap1\n      pop\n      sload\n      dup2\n      jump\t// out\n        /* \"#utility.yul\":88:205   */\n    tag_140:\n        /* \"#utility.yul\":197:198   */\n      0x00\n        /* \"#utility.yul\":194:195   */\n      dup1\n        /* \"#utility.yul\":187:199   */\n      revert\n        /* \"#utility.yul\":334:440   */\n    tag_142:\n        /* \"#utility.yul\":414:415   */\n      0x05\n        /* \"#utility.yul\":407:412   */\n      dup2\n        /* \"#utility.yul\":404:416   */\n      lt\n        /* \"#utility.yul\":394:434   */\n      tag_158\n      jumpi\n        /* \"#utility.yul\":430:431   */\n      0x00\n        /* \"#utility.yul\":427:428   */\n      dup1\n        /* \"#utility.yul\":420:432   */\n      revert\n        /* \"#utility.yul\":394:434   */\n    tag_158:\n        /* \"#utility.yul\":334:440   */\n      pop\n      jump\t// out\n        /* \"#utility.yul\":446:599   */\n    tag_143:\n        /* \"#utility.yul\":499:504   */\n      0x00\n        /* \"#utility.yul\":537:543   */\n      dup2\n        /* \"#utility.yul\":524:544   */\n      calldataload\n        /* \"#utility.yul\":515:544   */\n      swap1\n      pop\n        /* \"#utility.yul\":553:593   */\n      tag_160\n        /* \"#utility.yul\":587:592   */\n      dup2\n        /* \"#utility.yul\":553:593   */\n      tag_142\n      jump\t// in\n    tag_160:\n        /* \"#utility.yul\":446:599   */\n      swap3\n      swap2\n      pop\n      pop\n      jump\t// out\n        /* \"#utility.yul\":605:682   */\n    tag_144:\n        /* \"#utility.yul\":642:649   */\n      0x00\n        /* \"#utility.yul\":671:676   */\n      dup2\n        /* \"#utility.yul\":660:676   */\n      swap1\n      pop\n        /* \"#utility.yul\":605:682   */\n      swap2\n      swap1\n      pop\n      jump\t// out\n        /* \"#utility.yul\":688:810   */\n    tag_145:\n        /* \"#utility.yul\":761:785   */\n      tag_163\n        /* \"#utility.yul\":779:784   */\n      dup2\n        /* \"#utility.yul\":761:785   */\n      tag_144\n      jump\t// in\n    tag_163:\n        /* \"#utility.yul\":754:759   */\n      dup2\n        /* \"#utility.yul\":751:786   */\n      eq\n        /* \"#utility.yul\":741:804   */\n      tag_164\n      jumpi\n        /* \"#utility.yul\":800:801   */\n      0x00\n        /* \"#utility.yul\":797:798   */\n      dup1\n        /* \"#utility.yul\":790:802   */\n      revert\n        /* \"#utility.yul\":741:804   */\n    tag_164:\n        /* \"#utility.yul\":688:810   */\n      pop\n      jump\t// out\n        /* \"#utility.yul\":816:955   */\n    tag_146:\n        /* \"#utility.yul\":862:867   */\n      0x00\n        /* \"#utility.yul\":900:906   */\n      dup2\n        /* \"#utility.yul\":887:907   */\n      calldataload\n        /* \"#utility.yul\":878:907   */\n      swap1\n      pop\n        /* \"#utility.yul\":916:949   */\n      tag_166\n        /* \"#utility.yul\":943:948   */\n      dup2\n        /* \"#utility.yul\":916:949   */\n      tag_145\n      jump\t// in\n    tag_166:\n        /* \"#utility.yul\":816:955   */\n      swap3\n      swap2\n      pop\n      pop\n      jump\t// out\n        /* \"#utility.yul\":961:1449   */\n    tag_10:\n        /* \"#utility.yul\":1036:1042   */\n      0x00\n        /* \"#utility.yul\":1044:1050   */\n      dup1\n        /* \"#utility.yul\":1093:1095   */\n      0x40\n        /* \"#utility.yul\":1081:1090   */\n      dup4\n        /* \"#utility.yul\":1072:1079   */\n      dup6\n        /* \"#utility.yul\":1068:1091   */\n      sub\n        /* \"#utility.yul\":1064:1096   */\n      slt\n        /* \"#utility.yul\":1061:1180   */\n      iszero\n      tag_168\n      jumpi\n        /* \"#utility.yul\":1099:1178   */\n      tag_169\n      tag_140\n      jump\t// in\n    tag_169:\n        /* \"#utility.yul\":1061:1180   */\n    tag_168:\n        /* \"#utility.yul\":1219:1220   */\n      0x00\n        /* \"#utility.yul\":1244:1304   */\n      tag_170\n        /* \"#utility.yul\":1296:1303   */\n      dup6\n        /* \"#utility.yul\":1287:1293   */\n      dup3\n        /* \"#utility.yul\":1276:1285   */\n      dup7\n        /* \"#utility.yul\":1272:1294   */\n      add\n        /* \"#utility.yul\":1244:1304   */\n      tag_143\n      jump\t// in\n    tag_170:\n        /* \"#utility.yul\":1234:1304   */\n      swap3\n      pop\n        /* \"#utility.yul\":1190:1314   */\n      pop\n        /* \"#utility.yul\":1353:1355   */\n      0x20\n        /* \"#utility.yul\":1379:1432   */\n      tag_171\n        /* \"#utility.yul\":1424:1431   */\n      dup6\n        /* \"#utility.yul\":1415:1421   */\n      dup3\n        /* \"#utility.yul\":1404:1413   */\n      dup7\n        /* \"#utility.yul\":1400:1422   */\n      add\n        /* \"#utility.yul\":1379:1432   */\n      tag_146\n      jump\t// in\n    tag_171:\n        /* \"#utility.yul\":1369:1432   */\n      swap2\n      pop\n        /* \"#utility.yul\":1324:1442   */\n      pop\n        /* \"#utility.yul\":961:1449   */\n      swap3\n      pop\n      swap3\n      swap1\n      pop\n      jump\t// out\n        /* \"#utility.yul\":1455:1573   */\n    tag_147:\n        /* \"#utility.yul\":1542:1566   */\n      tag_173\n        /* \"#utility.yul\":1560:1565   */\n      dup2\n        /* \"#utility.yul\":1542:1566   */\n      tag_144\n      jump\t// in\n    tag_173:\n        /* \"#utility.yul\":1537:1540   */\n      dup3\n        /* \"#utility.yul\":1530:1567   */\n      mstore\n        /* \"#utility.yul\":1455:1573   */\n      pop\n      pop\n      jump\t// out\n        /* \"#utility.yul\":1579:2021   */\n    tag_13:\n        /* \"#utility.yul\":1728:1732   */\n      0x00\n        /* \"#utility.yul\":1766:1768   */\n      0x60\n        /* \"#utility.yul\":1755:1764   */\n      dup3\n        /* \"#utility.yul\":1751:1769   */\n      add\n        /* \"#utility.yul\":1743:1769   */\n      swap1\n      pop\n        /* \"#utility.yul\":1779:1850   */\n      tag_175\n        /* \"#utility.yul\":1847:1848   */\n      0x00\n        /* \"#utility.yul\":1836:1845   */\n      dup4\n        /* \"#utility.yul\":1832:1849   */\n      add\n        /* \"#utility.yul\":1823:1829   */\n      dup7\n        /* \"#utility.yul\":1779:1850   */\n      tag_147\n      jump\t// in\n    tag_175:\n        /* \"#utility.yul\":1860:1932   */\n      tag_176\n        /* \"#utility.yul\":1928:1930   */\n      0x20\n        /* \"#utility.yul\":1917:1926   */\n      dup4\n        /* \"#utility.yul\":1913:1931   */\n      add\n        /* \"#utility.yul\":1904:1910   */\n      dup6\n        /* \"#utility.yul\":1860:1932   */\n      tag_147\n      jump\t// in\n    tag_176:\n        /* \"#utility.yul\":1942:2014   */\n      tag_177\n        /* \"#utility.yul\":2010:2012   */\n      0x40\n        /* \"#utility.yul\":1999:2008   */\n      dup4\n        /* \"#utility.yul\":1995:2013   */\n      add\n        /* \"#utility.yul\":1986:1992   */\n      dup5\n        /* \"#utility.yul\":1942:2014   */\n      tag_147\n      jump\t// in\n    tag_177:\n        /* \"#utility.yul\":1579:2021   */\n      swap5\n      swap4\n      pop\n      pop\n      pop\n      pop\n      jump\t// out\n        /* \"#utility.yul\":2027:2370   */\n    tag_16:\n        /* \"#utility.yul\":2093:2099   */\n      0x00\n        /* \"#utility.yul\":2142:2144   */\n      0x20\n        /* \"#utility.yul\":2130:2139   */\n      dup3\n        /* \"#utility.yul\":2121:2128   */\n      dup5\n        /* \"#utility.yul\":2117:2140   */\n      sub\n        /* \"#utility.yul\":2113:2145   */\n      slt\n        /* \"#utility.yul\":2110:2229   */\n      iszero\n      tag_179\n      jumpi\n        /* \"#utility.yul\":2148:2227   */\n      tag_180\n      tag_140\n      jump\t// in\n    tag_180:\n        /* \"#utility.yul\":2110:2229   */\n    tag_179:\n        /* \"#utility.yul\":2268:2269   */\n      0x00\n        /* \"#utility.yul\":2293:2353   */\n      tag_181\n        /* \"#utility.yul\":2345:2352   */\n      dup5\n        /* \"#utility.yul\":2336:2342   */\n      dup3\n        /* \"#utility.yul\":2325:2334   */\n      dup6\n        /* \"#utility.yul\":2321:2343   */\n      add\n        /* \"#utility.yul\":2293:2353   */\n      tag_143\n      jump\t// in\n    tag_181:\n        /* \"#utility.yul\":2283:2353   */\n      swap2\n      pop\n        /* \"#utility.yul\":2239:2363   */\n      pop\n        /* \"#utility.yul\":2027:2370   */\n      swap3\n      swap2\n      pop\n      pop\n      jump\t// out\n        /* \"#utility.yul\":2376:2598   */\n    tag_19:\n        /* \"#utility.yul\":2469:2473   */\n      0x00\n        /* \"#utility.yul\":2507:2509   */\n      0x20\n        /* \"#utility.yul\":2496:2505   */\n      dup3\n        /* \"#utility.yul\":2492:2510   */\n      add\n        /* \"#utility.yul\":2484:2510   */\n      swap1\n      pop\n        /* \"#utility.yul\":2520:2591   */\n      tag_183\n        /* \"#utility.yul\":2588:2589   */\n      0x00\n        /* \"#utility.yul\":2577:2586   */\n      dup4\n        /* \"#utility.yul\":2573:2590   */\n      add\n        /* \"#utility.yul\":2564:2570   */\n      dup5\n        /* \"#utility.yul\":2520:2591   */\n      tag_147\n      jump\t// in\n    tag_183:\n        /* \"#utility.yul\":2376:2598   */\n      swap3\n      swap2\n      pop\n      pop\n      jump\t// out\n        /* \"#utility.yul\":2604:2784   */\n    tag_36:\n        /* \"#utility.yul\":2652:2729   */\n      0x4e487b7100000000000000000000000000000000000000000000000000000000\n        /* \"#utility.yul\":2649:2650   */\n      0x00\n        /* \"#utility.yul\":2642:2730   */\n      mstore\n        /* \"#utility.yul\":2749:2753   */\n      0x21\n        /* \"#utility.yul\":2746:2747   */\n      0x04\n        /* \"#utility.yul\":2739:2754   */\n      mstore\n        /* \"#utility.yul\":2773:2777   */\n      0x24\n        /* \"#utility.yul\":2770:2771   */\n      0x00\n        /* \"#utility.yul\":2763:2778   */\n      revert\n        /* \"#utility.yul\":2790:2902   */\n    tag_148:\n        /* \"#utility.yul\":2870:2871   */\n      0x05\n        /* \"#utility.yul\":2863:2868   */\n      dup2\n        /* \"#utility.yul\":2860:2872   */\n      lt\n        /* \"#utility.yul\":2850:2896   */\n      tag_186\n      jumpi\n        /* \"#utility.yul\":2876:2894   */\n      tag_187\n      tag_36\n      jump\t// in\n    tag_187:\n        /* \"#utility.yul\":2850:2896   */\n    tag_186:\n        /* \"#utility.yul\":2790:2902   */\n      pop\n      jump\t// out\n        /* \"#utility.yul\":2908:3033   */\n    tag_149:\n        /* \"#utility.yul\":2952:2959   */\n      0x00\n        /* \"#utility.yul\":2981:2986   */\n      dup2\n        /* \"#utility.yul\":2970:2986   */\n      swap1\n      pop\n        /* \"#utility.yul\":2987:3027   */\n      tag_189\n        /* \"#utility.yul\":3021:3026   */\n      dup3\n        /* \"#utility.yul\":2987:3027   */\n      tag_148\n      jump\t// in\n    tag_189:\n        /* \"#utility.yul\":2908:3033   */\n      swap2\n      swap1\n      pop\n      jump\t// out\n        /* \"#utility.yul\":3039:3164   */\n    tag_150:\n        /* \"#utility.yul\":3094:3103   */\n      0x00\n        /* \"#utility.yul\":3127:3158   */\n      tag_191\n        /* \"#utility.yul\":3152:3157   */\n      dup3\n        /* \"#utility.yul\":3127:3158   */\n      tag_149\n      jump\t// in\n    tag_191:\n        /* \"#utility.yul\":3114:3158   */\n      swap1\n      pop\n        /* \"#utility.yul\":3039:3164   */\n      swap2\n      swap1\n      pop\n      jump\t// out\n        /* \"#utility.yul\":3170:3311   */\n    tag_151:\n        /* \"#utility.yul\":3262:3304   */\n      tag_193\n        /* \"#utility.yul\":3298:3303   */\n      dup2\n        /* \"#utility.yul\":3262:3304   */\n      tag_150\n      jump\t// in\n    tag_193:\n        /* \"#utility.yul\":3257:3260   */\n      dup3\n        /* \"#utility.yul\":3250:3305   */\n      mstore\n        /* \"#utility.yul\":3170:3311   */\n      pop\n      pop\n      jump\t// out\n        /* \"#utility.yul\":3317:3769   */\n    tag_24:\n        /* \"#utility.yul\":3471:3475   */\n      0x00\n        /* \"#utility.yul\":3509:3511   */\n      0x60\n        /* \"#utility.yul\":3498:3507   */\n      dup3\n        /* \"#utility.yul\":3494:3512   */\n      add\n        /* \"#utility.yul\":3486:3512   */\n      swap1\n      pop\n        /* \"#utility.yul\":3522:3598   */\n      tag_195\n        /* \"#utility.yul\":3595:3596   */\n      0x00\n        /* \"#utility.yul\":3584:3593   */\n      dup4\n        /* \"#utility.yul\":3580:3597   */\n      add\n        /* \"#utility.yul\":3571:3577   */\n      dup7\n        /* \"#utility.yul\":3522:3598   */\n      tag_151\n      jump\t// in\n    tag_195:\n        /* \"#utility.yul\":3608:3680   */\n      tag_196\n        /* \"#utility.yul\":3676:3678   */\n      0x20\n        /* \"#utility.yul\":3665:3674   */\n      dup4\n        /* \"#utility.yul\":3661:3679   */\n      add\n        /* \"#utility.yul\":3652:3658   */\n      dup6\n        /* \"#utility.yul\":3608:3680   */\n      tag_147\n      jump\t// in\n    tag_196:\n        /* \"#utility.yul\":3690:3762   */\n      tag_197\n        /* \"#utility.yul\":3758:3760   */\n      0x40\n        /* \"#utility.yul\":3747:3756   */\n      dup4\n        /* \"#utility.yul\":3743:3761   */\n      add\n        /* \"#utility.yul\":3734:3740   */\n      dup5\n        /* \"#utility.yul\":3690:3762   */\n      tag_147\n      jump\t// in\n    tag_197:\n        /* \"#utility.yul\":3317:3769   */\n      swap5\n      swap4\n      pop\n      pop\n      pop\n      pop\n      jump\t// out\n        /* \"#utility.yul\":3775:3955   */\n    tag_152:\n        /* \"#utility.yul\":3823:3900   */\n      0x4e487b7100000000000000000000000000000000000000000000000000000000\n        /* \"#utility.yul\":3820:3821   */\n      0x00\n        /* \"#utility.yul\":3813:3901   */\n      mstore\n        /* \"#utility.yul\":3920:3924   */\n      0x11\n        /* \"#utility.yul\":3917:3918   */\n      0x04\n        /* \"#utility.yul\":3910:3925   */\n      mstore\n        /* \"#utility.yul\":3944:3948   */\n      0x24\n        /* \"#utility.yul\":3941:3942   */\n      0x00\n        /* \"#utility.yul\":3934:3949   */\n      revert\n        /* \"#utility.yul\":3961:4152   */\n    tag_40:\n        /* \"#utility.yul\":4001:4004   */\n      0x00\n        /* \"#utility.yul\":4020:4040   */\n      tag_200\n        /* \"#utility.yul\":4038:4039   */\n      dup3\n        /* \"#utility.yul\":4020:4040   */\n      tag_144\n      jump\t// in\n    tag_200:\n        /* \"#utility.yul\":4015:4040   */\n      swap2\n      pop\n        /* \"#utility.yul\":4054:4074   */\n      tag_201\n        /* \"#utility.yul\":4072:4073   */\n      dup4\n        /* \"#utility.yul\":4054:4074   */\n      tag_144\n      jump\t// in\n    tag_201:\n        /* \"#utility.yul\":4049:4074   */\n      swap3\n      pop\n        /* \"#utility.yul\":4097:4098   */\n      dup3\n        /* \"#utility.yul\":4094:4095   */\n      dup3\n        /* \"#utility.yul\":4090:4099   */\n      add\n        /* \"#utility.yul\":4083:4099   */\n      swap1\n      pop\n        /* \"#utility.yul\":4118:4121   */\n      dup1\n        /* \"#utility.yul\":4115:4116   */\n      dup3\n        /* \"#utility.yul\":4112:4122   */\n      gt\n        /* \"#utility.yul\":4109:4145   */\n      iszero\n      tag_202\n      jumpi\n        /* \"#utility.yul\":4125:4143   */\n      tag_203\n      tag_152\n      jump\t// in\n    tag_203:\n        /* \"#utility.yul\":4109:4145   */\n    tag_202:\n        /* \"#utility.yul\":3961:4152   */\n      swap3\n      swap2\n      pop\n      pop\n      jump\t// out\n        /* \"#utility.yul\":4158:4352   */\n    tag_48:\n        /* \"#utility.yul\":4198:4202   */\n      0x00\n        /* \"#utility.yul\":4218:4238   */\n      tag_205\n        /* \"#utility.yul\":4236:4237   */\n      dup3\n        /* \"#utility.yul\":4218:4238   */\n      tag_144\n      jump\t// in\n    tag_205:\n        /* \"#utility.yul\":4213:4238   */\n      swap2\n      pop\n        /* \"#utility.yul\":4252:4272   */\n      tag_206\n        /* \"#utility.yul\":4270:4271   */\n      dup4\n        /* \"#utility.yul\":4252:4272   */\n      tag_144\n      jump\t// in\n    tag_206:\n        /* \"#utility.yul\":4247:4272   */\n      swap3\n      pop\n        /* \"#utility.yul\":4296:4297   */\n      dup3\n        /* \"#utility.yul\":4293:4294   */\n      dup3\n        /* \"#utility.yul\":4289:4298   */\n      sub\n        /* \"#utility.yul\":4281:4298   */\n      swap1\n      pop\n        /* \"#utility.yul\":4320:4321   */\n      dup2\n        /* \"#utility.yul\":4314:4318   */\n      dup2\n        /* \"#utility.yul\":4311:4322   */\n      gt\n        /* \"#utility.yul\":4308:4345   */\n      iszero\n      tag_207\n      jumpi\n        /* \"#utility.yul\":4325:4343   */\n      tag_208\n      tag_152\n      jump\t// in\n    tag_208:\n        /* \"#utility.yul\":4308:4345   */\n    tag_207:\n        /* \"#utility.yul\":4158:4352   */\n      swap3\n      swap2\n      pop\n      pop\n      jump\t// out\n\n    auxdata: 0xa26469706673582212209ddf2bad3d924f583e52e5fd5cd936a61a6ff1f3fcb2bde33d74bfc7938d181d64736f6c63430008100033\n}\n",
				"bytecode": {
					"linkReferences": {},
					"object": "608060405234801561001057600080fd5b506109cb806100206000396000f3fe608060405234801561001057600080fd5b50600436106100575760003560e01c80638d65df2a1461005c578063ad940f001461008e578063c332c3be146100be578063c79cf758146100f0578063fa66c1ba14610120575b600080fd5b61007660048036038101906100719190610782565b610150565b604051610085939291906107d1565b60405180910390f35b6100a860048036038101906100a39190610808565b610436565b6040516100b59190610835565b60405180910390f35b6100d860048036038101906100d39190610782565b61044e565b6040516100e7939291906108c7565b60405180910390f35b61010a60048036038101906101059190610808565b6106f2565b6040516101179190610835565b60405180910390f35b61013a60048036038101906101359190610808565b61070a565b6040516101479190610835565b60405180910390f35b600080600080602a8560008089600481111561016f5761016e610850565b5b600481111561018157610180610850565b5b81526020019081526020016000205461019a919061092d565b11156102ba57602a856000808960048111156101b9576101b8610850565b5b60048111156101cb576101ca610850565b5b8152602001908152602001600020546101e4919061092d565b6101ee9190610961565b856101f99190610961565b9050806002600088600481111561021357610212610850565b5b600481111561022557610224610850565b5b81526020019081526020016000205461023e919061092d565b6002600088600481111561025557610254610850565b5b600481111561026757610266610850565b5b815260200190815260200160002081905550602a60008088600481111561029157610290610850565b5b60048111156102a3576102a2610850565b5b8152602001908152602001600020819055506103b8565b849050846000808860048111156102d4576102d3610850565b5b60048111156102e6576102e5610850565b5b8152602001908152602001600020546102ff919061092d565b60008088600481111561031557610314610850565b5b600481111561032757610326610850565b5b815260200190815260200160002081905550846002600088600481111561035157610350610850565b5b600481111561036357610362610850565b5b81526020019081526020016000205461037c919061092d565b6002600088600481111561039357610392610850565b5b60048111156103a5576103a4610850565b5b8152602001908152602001600020819055505b6000808760048111156103ce576103cd610850565b5b60048111156103e0576103df610850565b5b8152602001908152602001600020546002600088600481111561040657610405610850565b5b600481111561041857610417610850565b5b81526020019081526020016000205482935093509350509250925092565b60016020528060005260406000206000915090505481565b60008060008360008087600481111561046a57610469610850565b5b600481111561047c5761047b610850565b5b815260200190815260200160002054101561057a576000808660048111156104a7576104a6610850565b5b60048111156104b9576104b8610850565b5b8152602001908152602001600020546000808760048111156104de576104dd610850565b5b60048111156104f0576104ef610850565b5b8152602001908152602001600020819055506001600086600481111561051957610518610850565b5b600481111561052b5761052a610850565b5b8152602001908152602001600020546001600087600481111561055157610550610850565b5b600481111561056357610562610850565b5b815260200190815260200160002081905550610675565b8360008087600481111561059157610590610850565b5b60048111156105a3576105a2610850565b5b8152602001908152602001600020546105bc9190610961565b6000808760048111156105d2576105d1610850565b5b60048111156105e4576105e3610850565b5b815260200190815260200160002081905550836001600087600481111561060e5761060d610850565b5b60048111156106205761061f610850565b5b815260200190815260200160002054610639919061092d565b600160008760048111156106505761064f610850565b5b600481111561066257610661610850565b5b8152602001908152602001600020819055505b8460008087600481111561068c5761068b610850565b5b600481111561069e5761069d610850565b5b815260200190815260200160002054600160008860048111156106c4576106c3610850565b5b60048111156106d6576106d5610850565b5b8152602001908152602001600020549250925092509250925092565b60006020528060005260406000206000915090505481565b60026020528060005260406000206000915090505481565b600080fd5b6005811061073457600080fd5b50565b60008135905061074681610727565b92915050565b6000819050919050565b61075f8161074c565b811461076a57600080fd5b50565b60008135905061077c81610756565b92915050565b6000806040838503121561079957610798610722565b5b60006107a785828601610737565b92505060206107b88582860161076d565b9150509250929050565b6107cb8161074c565b82525050565b60006060820190506107e660008301866107c2565b6107f360208301856107c2565b61080060408301846107c2565b949350505050565b60006020828403121561081e5761081d610722565b5b600061082c84828501610737565b91505092915050565b600060208201905061084a60008301846107c2565b92915050565b7f4e487b7100000000000000000000000000000000000000000000000000000000600052602160045260246000fd5b600581106108905761088f610850565b5b50565b60008190506108a18261087f565b919050565b60006108b182610893565b9050919050565b6108c1816108a6565b82525050565b60006060820190506108dc60008301866108b8565b6108e960208301856107c2565b6108f660408301846107c2565b949350505050565b7f4e487b7100000000000000000000000000000000000000000000000000000000600052601160045260246000fd5b60006109388261074c565b91506109438361074c565b925082820190508082111561095b5761095a6108fe565b5b92915050565b600061096c8261074c565b91506109778361074c565b925082820390508181111561098f5761098e6108fe565b5b9291505056fea26469706673582212209ddf2bad3d924f583e52e5fd5cd936a61a6ff1f3fcb2bde33d74bfc7938d181d64736f6c63430008100033",
					"opcodes": "PUSH1 0x80 PUSH1 0x40 MSTORE CALLVALUE DUP1 ISZERO PUSH2 0x10 JUMPI PUSH1 0x0 DUP1 REVERT JUMPDEST POP PUSH2 0x9CB DUP1 PUSH2 0x20 PUSH1 0x0 CODECOPY PUSH1 0x0 RETURN INVALID PUSH1 0x80 PUSH1 0x40 MSTORE CALLVALUE DUP1 ISZERO PUSH2 0x10 JUMPI PUSH1 0x0 DUP1 REVERT JUMPDEST POP PUSH1 0x4 CALLDATASIZE LT PUSH2 0x57 JUMPI PUSH1 0x0 CALLDATALOAD PUSH1 0xE0 SHR DUP1 PUSH4 0x8D65DF2A EQ PUSH2 0x5C JUMPI DUP1 PUSH4 0xAD940F00 EQ PUSH2 0x8E JUMPI DUP1 PUSH4 0xC332C3BE EQ PUSH2 0xBE JUMPI DUP1 PUSH4 0xC79CF758 EQ PUSH2 0xF0 JUMPI DUP1 PUSH4 0xFA66C1BA EQ PUSH2 0x120 JUMPI JUMPDEST PUSH1 0x0 DUP1 REVERT JUMPDEST PUSH2 0x76 PUSH1 0x4 DUP1 CALLDATASIZE SUB DUP2 ADD SWAP1 PUSH2 0x71 SWAP2 SWAP1 PUSH2 0x782 JUMP JUMPDEST PUSH2 0x150 JUMP JUMPDEST PUSH1 0x40 MLOAD PUSH2 0x85 SWAP4 SWAP3 SWAP2 SWAP1 PUSH2 0x7D1 JUMP JUMPDEST PUSH1 0x40 MLOAD DUP1 SWAP2 SUB SWAP1 RETURN JUMPDEST PUSH2 0xA8 PUSH1 0x4 DUP1 CALLDATASIZE SUB DUP2 ADD SWAP1 PUSH2 0xA3 SWAP2 SWAP1 PUSH2 0x808 JUMP JUMPDEST PUSH2 0x436 JUMP JUMPDEST PUSH1 0x40 MLOAD PUSH2 0xB5 SWAP2 SWAP1 PUSH2 0x835 JUMP JUMPDEST PUSH1 0x40 MLOAD DUP1 SWAP2 SUB SWAP1 RETURN JUMPDEST PUSH2 0xD8 PUSH1 0x4 DUP1 CALLDATASIZE SUB DUP2 ADD SWAP1 PUSH2 0xD3 SWAP2 SWAP1 PUSH2 0x782 JUMP JUMPDEST PUSH2 0x44E JUMP JUMPDEST PUSH1 0x40 MLOAD PUSH2 0xE7 SWAP4 SWAP3 SWAP2 SWAP1 PUSH2 0x8C7 JUMP JUMPDEST PUSH1 0x40 MLOAD DUP1 SWAP2 SUB SWAP1 RETURN JUMPDEST PUSH2 0x10A PUSH1 0x4 DUP1 CALLDATASIZE SUB DUP2 ADD SWAP1 PUSH2 0x105 SWAP2 SWAP1 PUSH2 0x808 JUMP JUMPDEST PUSH2 0x6F2 JUMP JUMPDEST PUSH1 0x40 MLOAD PUSH2 0x117 SWAP2 SWAP1 PUSH2 0x835 JUMP JUMPDEST PUSH1 0x40 MLOAD DUP1 SWAP2 SUB SWAP1 RETURN JUMPDEST PUSH2 0x13A PUSH1 0x4 DUP1 CALLDATASIZE SUB DUP2 ADD SWAP1 PUSH2 0x135 SWAP2 SWAP1 PUSH2 0x808 JUMP JUMPDEST PUSH2 0x70A JUMP JUMPDEST PUSH1 0x40 MLOAD PUSH2 0x147 SWAP2 SWAP1 PUSH2 0x835 JUMP JUMPDEST PUSH1 0x40 MLOAD DUP1 SWAP2 SUB SWAP1 RETURN JUMPDEST PUSH1 0x0 DUP1 PUSH1 0x0 DUP1 PUSH1 0x2A DUP6 PUSH1 0x0 DUP1 DUP10 PUSH1 0x4 DUP2 GT ISZERO PUSH2 0x16F JUMPI PUSH2 0x16E PUSH2 0x850 JUMP JUMPDEST JUMPDEST PUSH1 0x4 DUP2 GT ISZERO PUSH2 0x181 JUMPI PUSH2 0x180 PUSH2 0x850 JUMP JUMPDEST JUMPDEST DUP2 MSTORE PUSH1 0x20 ADD SWAP1 DUP2 MSTORE PUSH1 0x20 ADD PUSH1 0x0 KECCAK256 SLOAD PUSH2 0x19A SWAP2 SWAP1 PUSH2 0x92D JUMP JUMPDEST GT ISZERO PUSH2 0x2BA JUMPI PUSH1 0x2A DUP6 PUSH1 0x0 DUP1 DUP10 PUSH1 0x4 DUP2 GT ISZERO PUSH2 0x1B9 JUMPI PUSH2 0x1B8 PUSH2 0x850 JUMP JUMPDEST JUMPDEST PUSH1 0x4 DUP2 GT ISZERO PUSH2 0x1CB JUMPI PUSH2 0x1CA PUSH2 0x850 JUMP JUMPDEST JUMPDEST DUP2 MSTORE PUSH1 0x20 ADD SWAP1 DUP2 MSTORE PUSH1 0x20 ADD PUSH1 0x0 KECCAK256 SLOAD PUSH2 0x1E4 SWAP2 SWAP1 PUSH2 0x92D JUMP JUMPDEST PUSH2 0x1EE SWAP2 SWAP1 PUSH2 0x961 JUMP JUMPDEST DUP6 PUSH2 0x1F9 SWAP2 SWAP1 PUSH2 0x961 JUMP JUMPDEST SWAP1 POP DUP1 PUSH1 0x2 PUSH1 0x0 DUP9 PUSH1 0x4 DUP2 GT ISZERO PUSH2 0x213 JUMPI PUSH2 0x212 PUSH2 0x850 JUMP JUMPDEST JUMPDEST PUSH1 0x4 DUP2 GT ISZERO PUSH2 0x225 JUMPI PUSH2 0x224 PUSH2 0x850 JUMP JUMPDEST JUMPDEST DUP2 MSTORE PUSH1 0x20 ADD SWAP1 DUP2 MSTORE PUSH1 0x20 ADD PUSH1 0x0 KECCAK256 SLOAD PUSH2 0x23E SWAP2 SWAP1 PUSH2 0x92D JUMP JUMPDEST PUSH1 0x2 PUSH1 0x0 DUP9 PUSH1 0x4 DUP2 GT ISZERO PUSH2 0x255 JUMPI PUSH2 0x254 PUSH2 0x850 JUMP JUMPDEST JUMPDEST PUSH1 0x4 DUP2 GT ISZERO PUSH2 0x267 JUMPI PUSH2 0x266 PUSH2 0x850 JUMP JUMPDEST JUMPDEST DUP2 MSTORE PUSH1 0x20 ADD SWAP1 DUP2 MSTORE PUSH1 0x20 ADD PUSH1 0x0 KECCAK256 DUP2 SWAP1 SSTORE POP PUSH1 0x2A PUSH1 0x0 DUP1 DUP9 PUSH1 0x4 DUP2 GT ISZERO PUSH2 0x291 JUMPI PUSH2 0x290 PUSH2 0x850 JUMP JUMPDEST JUMPDEST PUSH1 0x4 DUP2 GT ISZERO PUSH2 0x2A3 JUMPI PUSH2 0x2A2 PUSH2 0x850 JUMP JUMPDEST JUMPDEST DUP2 MSTORE PUSH1 0x20 ADD SWAP1 DUP2 MSTORE PUSH1 0x20 ADD PUSH1 0x0 KECCAK256 DUP2 SWAP1 SSTORE POP PUSH2 0x3B8 JUMP JUMPDEST DUP5 SWAP1 POP DUP5 PUSH1 0x0 DUP1 DUP9 PUSH1 0x4 DUP2 GT ISZERO PUSH2 0x2D4 JUMPI PUSH2 0x2D3 PUSH2 0x850 JUMP JUMPDEST JUMPDEST PUSH1 0x4 DUP2 GT ISZERO PUSH2 0x2E6 JUMPI PUSH2 0x2E5 PUSH2 0x850 JUMP JUMPDEST JUMPDEST DUP2 MSTORE PUSH1 0x20 ADD SWAP1 DUP2 MSTORE PUSH1 0x20 ADD PUSH1 0x0 KECCAK256 SLOAD PUSH2 0x2FF SWAP2 SWAP1 PUSH2 0x92D JUMP JUMPDEST PUSH1 0x0 DUP1 DUP9 PUSH1 0x4 DUP2 GT ISZERO PUSH2 0x315 JUMPI PUSH2 0x314 PUSH2 0x850 JUMP JUMPDEST JUMPDEST PUSH1 0x4 DUP2 GT ISZERO PUSH2 0x327 JUMPI PUSH2 0x326 PUSH2 0x850 JUMP JUMPDEST JUMPDEST DUP2 MSTORE PUSH1 0x20 ADD SWAP1 DUP2 MSTORE PUSH1 0x20 ADD PUSH1 0x0 KECCAK256 DUP2 SWAP1 SSTORE POP DUP5 PUSH1 0x2 PUSH1 0x0 DUP9 PUSH1 0x4 DUP2 GT ISZERO PUSH2 0x351 JUMPI PUSH2 0x350 PUSH2 0x850 JUMP JUMPDEST JUMPDEST PUSH1 0x4 DUP2 GT ISZERO PUSH2 0x363 JUMPI PUSH2 0x362 PUSH2 0x850 JUMP JUMPDEST JUMPDEST DUP2 MSTORE PUSH1 0x20 ADD SWAP1 DUP2 MSTORE PUSH1 0x20 ADD PUSH1 0x0 KECCAK256 SLOAD PUSH2 0x37C SWAP2 SWAP1 PUSH2 0x92D JUMP JUMPDEST PUSH1 0x2 PUSH1 0x0 DUP9 PUSH1 0x4 DUP2 GT ISZERO PUSH2 0x393 JUMPI PUSH2 0x392 PUSH2 0x850 JUMP JUMPDEST JUMPDEST PUSH1 0x4 DUP2 GT ISZERO PUSH2 0x3A5 JUMPI PUSH2 0x3A4 PUSH2 0x850 JUMP JUMPDEST JUMPDEST DUP2 MSTORE PUSH1 0x20 ADD SWAP1 DUP2 MSTORE PUSH1 0x20 ADD PUSH1 0x0 KECCAK256 DUP2 SWAP1 SSTORE POP JUMPDEST PUSH1 0x0 DUP1 DUP8 PUSH1 0x4 DUP2 GT ISZERO PUSH2 0x3CE JUMPI PUSH2 0x3CD PUSH2 0x850 JUMP JUMPDEST JUMPDEST PUSH1 0x4 DUP2 GT ISZERO PUSH2 0x3E0 JUMPI PUSH2 0x3DF PUSH2 0x850 JUMP JUMPDEST JUMPDEST DUP2 MSTORE PUSH1 0x20 ADD SWAP1 DUP2 MSTORE PUSH1 0x20 ADD PUSH1 0x0 KECCAK256 SLOAD PUSH1 0x2 PUSH1 0x0 DUP9 PUSH1 0x4 DUP2 GT ISZERO PUSH2 0x406 JUMPI PUSH2 0x405 PUSH2 0x850 JUMP JUMPDEST JUMPDEST PUSH1 0x4 DUP2 GT ISZERO PUSH2 0x418 JUMPI PUSH2 0x417 PUSH2 0x850 JUMP JUMPDEST JUMPDEST DUP2 MSTORE PUSH1 0x20 ADD SWAP1 DUP2 MSTORE PUSH1 0x20 ADD PUSH1 0x0 KECCAK256 SLOAD DUP3 SWAP4 POP SWAP4 POP SWAP4 POP POP SWAP3 POP SWAP3 POP SWAP3 JUMP JUMPDEST PUSH1 0x1 PUSH1 0x20 MSTORE DUP1 PUSH1 0x0 MSTORE PUSH1 0x40 PUSH1 0x0 KECCAK256 PUSH1 0x0 SWAP2 POP SWAP1 POP SLOAD DUP2 JUMP JUMPDEST PUSH1 0x0 DUP1 PUSH1 0x0 DUP4 PUSH1 0x0 DUP1 DUP8 PUSH1 0x4 DUP2 GT ISZERO PUSH2 0x46A JUMPI PUSH2 0x469 PUSH2 0x850 JUMP JUMPDEST JUMPDEST PUSH1 0x4 DUP2 GT ISZERO PUSH2 0x47C JUMPI PUSH2 0x47B PUSH2 0x850 JUMP JUMPDEST JUMPDEST DUP2 MSTORE PUSH1 0x20 ADD SWAP1 DUP2 MSTORE PUSH1 0x20 ADD PUSH1 0x0 KECCAK256 SLOAD LT ISZERO PUSH2 0x57A JUMPI PUSH1 0x0 DUP1 DUP7 PUSH1 0x4 DUP2 GT ISZERO PUSH2 0x4A7 JUMPI PUSH2 0x4A6 PUSH2 0x850 JUMP JUMPDEST JUMPDEST PUSH1 0x4 DUP2 GT ISZERO PUSH2 0x4B9 JUMPI PUSH2 0x4B8 PUSH2 0x850 JUMP JUMPDEST JUMPDEST DUP2 MSTORE PUSH1 0x20 ADD SWAP1 DUP2 MSTORE PUSH1 0x20 ADD PUSH1 0x0 KECCAK256 SLOAD PUSH1 0x0 DUP1 DUP8 PUSH1 0x4 DUP2 GT ISZERO PUSH2 0x4DE JUMPI PUSH2 0x4DD PUSH2 0x850 JUMP JUMPDEST JUMPDEST PUSH1 0x4 DUP2 GT ISZERO PUSH2 0x4F0 JUMPI PUSH2 0x4EF PUSH2 0x850 JUMP JUMPDEST JUMPDEST DUP2 MSTORE PUSH1 0x20 ADD SWAP1 DUP2 MSTORE PUSH1 0x20 ADD PUSH1 0x0 KECCAK256 DUP2 SWAP1 SSTORE POP PUSH1 0x1 PUSH1 0x0 DUP7 PUSH1 0x4 DUP2 GT ISZERO PUSH2 0x519 JUMPI PUSH2 0x518 PUSH2 0x850 JUMP JUMPDEST JUMPDEST PUSH1 0x4 DUP2 GT ISZERO PUSH2 0x52B JUMPI PUSH2 0x52A PUSH2 0x850 JUMP JUMPDEST JUMPDEST DUP2 MSTORE PUSH1 0x20 ADD SWAP1 DUP2 MSTORE PUSH1 0x20 ADD PUSH1 0x0 KECCAK256 SLOAD PUSH1 0x1 PUSH1 0x0 DUP8 PUSH1 0x4 DUP2 GT ISZERO PUSH2 0x551 JUMPI PUSH2 0x550 PUSH2 0x850 JUMP JUMPDEST JUMPDEST PUSH1 0x4 DUP2 GT ISZERO PUSH2 0x563 JUMPI PUSH2 0x562 PUSH2 0x850 JUMP JUMPDEST JUMPDEST DUP2 MSTORE PUSH1 0x20 ADD SWAP1 DUP2 MSTORE PUSH1 0x20 ADD PUSH1 0x0 KECCAK256 DUP2 SWAP1 SSTORE POP PUSH2 0x675 JUMP JUMPDEST DUP4 PUSH1 0x0 DUP1 DUP8 PUSH1 0x4 DUP2 GT ISZERO PUSH2 0x591 JUMPI PUSH2 0x590 PUSH2 0x850 JUMP JUMPDEST JUMPDEST PUSH1 0x4 DUP2 GT ISZERO PUSH2 0x5A3 JUMPI PUSH2 0x5A2 PUSH2 0x850 JUMP JUMPDEST JUMPDEST DUP2 MSTORE PUSH1 0x20 ADD SWAP1 DUP2 MSTORE PUSH1 0x20 ADD PUSH1 0x0 KECCAK256 SLOAD PUSH2 0x5BC SWAP2 SWAP1 PUSH2 0x961 JUMP JUMPDEST PUSH1 0x0 DUP1 DUP8 PUSH1 0x4 DUP2 GT ISZERO PUSH2 0x5D2 JUMPI PUSH2 0x5D1 PUSH2 0x850 JUMP JUMPDEST JUMPDEST PUSH1 0x4 DUP2 GT ISZERO PUSH2 0x5E4 JUMPI PUSH2 0x5E3 PUSH2 0x850 JUMP JUMPDEST JUMPDEST DUP2 MSTORE PUSH1 0x20 ADD SWAP1 DUP2 MSTORE PUSH1 0x20 ADD PUSH1 0x0 KECCAK256 DUP2 SWAP1 SSTORE POP DUP4 PUSH1 0x1 PUSH1 0x0 DUP8 PUSH1 0x4 DUP2 GT ISZERO PUSH2 0x60E JUMPI PUSH2 0x60D PUSH2 0x850 JUMP JUMPDEST JUMPDEST PUSH1 0x4 DUP2 GT ISZERO PUSH2 0x620 JUMPI PUSH2 0x61F PUSH2 0x850 JUMP JUMPDEST JUMPDEST DUP2 MSTORE PUSH1 0x20 ADD SWAP1 DUP2 MSTORE PUSH1 0x20 ADD PUSH1 0x0 KECCAK256 SLOAD PUSH2 0x639 SWAP2 SWAP1 PUSH2 0x92D JUMP JUMPDEST PUSH1 0x1 PUSH1 0x0 DUP8 PUSH1 0x4 DUP2 GT ISZERO PUSH2 0x650 JUMPI PUSH2 0x64F PUSH2 0x850 JUMP JUMPDEST JUMPDEST PUSH1 0x4 DUP2 GT ISZERO PUSH2 0x662 JUMPI PUSH2 0x661 PUSH2 0x850 JUMP JUMPDEST JUMPDEST DUP2 MSTORE PUSH1 0x20 ADD SWAP1 DUP2 MSTORE PUSH1 0x20 ADD PUSH1 0x0 KECCAK256 DUP2 SWAP1 SSTORE POP JUMPDEST DUP5 PUSH1 0x0 DUP1 DUP8 PUSH1 0x4 DUP2 GT ISZERO PUSH2 0x68C JUMPI PUSH2 0x68B PUSH2 0x850 JUMP JUMPDEST JUMPDEST PUSH1 0x4 DUP2 GT ISZERO PUSH2 0x69E JUMPI PUSH2 0x69D PUSH2 0x850 JUMP JUMPDEST JUMPDEST DUP2 MSTORE PUSH1 0x20 ADD SWAP1 DUP2 MSTORE PUSH1 0x20 ADD PUSH1 0x0 KECCAK256 SLOAD PUSH1 0x1 PUSH1 0x0 DUP9 PUSH1 0x4 DUP2 GT ISZERO PUSH2 0x6C4 JUMPI PUSH2 0x6C3 PUSH2 0x850 JUMP JUMPDEST JUMPDEST PUSH1 0x4 DUP2 GT ISZERO PUSH2 0x6D6 JUMPI PUSH2 0x6D5 PUSH2 0x850 JUMP JUMPDEST JUMPDEST DUP2 MSTORE PUSH1 0x20 ADD SWAP1 DUP2 MSTORE PUSH1 0x20 ADD PUSH1 0x0 KECCAK256 SLOAD SWAP3 POP SWAP3 POP SWAP3 POP SWAP3 POP SWAP3 POP SWAP3 JUMP JUMPDEST PUSH1 0x0 PUSH1 0x20 MSTORE DUP1 PUSH1 0x0 MSTORE PUSH1 0x40 PUSH1 0x0 KECCAK256 PUSH1 0x0 SWAP2 POP SWAP1 POP SLOAD DUP2 JUMP JUMPDEST PUSH1 0x2 PUSH1 0x20 MSTORE DUP1 PUSH1 0x0 MSTORE PUSH1 0x40 PUSH1 0x0 KECCAK256 PUSH1 0x0 SWAP2 POP SWAP1 POP SLOAD DUP2 JUMP JUMPDEST PUSH1 0x0 DUP1 REVERT JUMPDEST PUSH1 0x5 DUP2 LT PUSH2 0x734 JUMPI PUSH1 0x0 DUP1 REVERT JUMPDEST POP JUMP JUMPDEST PUSH1 0x0 DUP2 CALLDATALOAD SWAP1 POP PUSH2 0x746 DUP2 PUSH2 0x727 JUMP JUMPDEST SWAP3 SWAP2 POP POP JUMP JUMPDEST PUSH1 0x0 DUP2 SWAP1 POP SWAP2 SWAP1 POP JUMP JUMPDEST PUSH2 0x75F DUP2 PUSH2 0x74C JUMP JUMPDEST DUP2 EQ PUSH2 0x76A JUMPI PUSH1 0x0 DUP1 REVERT JUMPDEST POP JUMP JUMPDEST PUSH1 0x0 DUP2 CALLDATALOAD SWAP1 POP PUSH2 0x77C DUP2 PUSH2 0x756 JUMP JUMPDEST SWAP3 SWAP2 POP POP JUMP JUMPDEST PUSH1 0x0 DUP1 PUSH1 0x40 DUP4 DUP6 SUB SLT ISZERO PUSH2 0x799 JUMPI PUSH2 0x798 PUSH2 0x722 JUMP JUMPDEST JUMPDEST PUSH1 0x0 PUSH2 0x7A7 DUP6 DUP3 DUP7 ADD PUSH2 0x737 JUMP JUMPDEST SWAP3 POP POP PUSH1 0x20 PUSH2 0x7B8 DUP6 DUP3 DUP7 ADD PUSH2 0x76D JUMP JUMPDEST SWAP2 POP POP SWAP3 POP SWAP3 SWAP1 POP JUMP JUMPDEST PUSH2 0x7CB DUP2 PUSH2 0x74C JUMP JUMPDEST DUP3 MSTORE POP POP JUMP JUMPDEST PUSH1 0x0 PUSH1 0x60 DUP3 ADD SWAP1 POP PUSH2 0x7E6 PUSH1 0x0 DUP4 ADD DUP7 PUSH2 0x7C2 JUMP JUMPDEST PUSH2 0x7F3 PUSH1 0x20 DUP4 ADD DUP6 PUSH2 0x7C2 JUMP JUMPDEST PUSH2 0x800 PUSH1 0x40 DUP4 ADD DUP5 PUSH2 0x7C2 JUMP JUMPDEST SWAP5 SWAP4 POP POP POP POP JUMP JUMPDEST PUSH1 0x0 PUSH1 0x20 DUP3 DUP5 SUB SLT ISZERO PUSH2 0x81E JUMPI PUSH2 0x81D PUSH2 0x722 JUMP JUMPDEST JUMPDEST PUSH1 0x0 PUSH2 0x82C DUP5 DUP3 DUP6 ADD PUSH2 0x737 JUMP JUMPDEST SWAP2 POP POP SWAP3 SWAP2 POP POP JUMP JUMPDEST PUSH1 0x0 PUSH1 0x20 DUP3 ADD SWAP1 POP PUSH2 0x84A PUSH1 0x0 DUP4 ADD DUP5 PUSH2 0x7C2 JUMP JUMPDEST SWAP3 SWAP2 POP POP JUMP JUMPDEST PUSH32 0x4E487B7100000000000000000000000000000000000000000000000000000000 PUSH1 0x0 MSTORE PUSH1 0x21 PUSH1 0x4 MSTORE PUSH1 0x24 PUSH1 0x0 REVERT JUMPDEST PUSH1 0x5 DUP2 LT PUSH2 0x890 JUMPI PUSH2 0x88F PUSH2 0x850 JUMP JUMPDEST JUMPDEST POP JUMP JUMPDEST PUSH1 0x0 DUP2 SWAP1 POP PUSH2 0x8A1 DUP3 PUSH2 0x87F JUMP JUMPDEST SWAP2 SWAP1 POP JUMP JUMPDEST PUSH1 0x0 PUSH2 0x8B1 DUP3 PUSH2 0x893 JUMP JUMPDEST SWAP1 POP SWAP2 SWAP1 POP JUMP JUMPDEST PUSH2 0x8C1 DUP2 PUSH2 0x8A6 JUMP JUMPDEST DUP3 MSTORE POP POP JUMP JUMPDEST PUSH1 0x0 PUSH1 0x60 DUP3 ADD SWAP1 POP PUSH2 0x8DC PUSH1 0x0 DUP4 ADD DUP7 PUSH2 0x8B8 JUMP JUMPDEST PUSH2 0x8E9 PUSH1 0x20 DUP4 ADD DUP6 PUSH2 0x7C2 JUMP JUMPDEST PUSH2 0x8F6 PUSH1 0x40 DUP4 ADD DUP5 PUSH2 0x7C2 JUMP JUMPDEST SWAP5 SWAP4 POP POP POP POP JUMP JUMPDEST PUSH32 0x4E487B7100000000000000000000000000000000000000000000000000000000 PUSH1 0x0 MSTORE PUSH1 0x11 PUSH1 0x4 MSTORE PUSH1 0x24 PUSH1 0x0 REVERT JUMPDEST PUSH1 0x0 PUSH2 0x938 DUP3 PUSH2 0x74C JUMP JUMPDEST SWAP2 POP PUSH2 0x943 DUP4 PUSH2 0x74C JUMP JUMPDEST SWAP3 POP DUP3 DUP3 ADD SWAP1 POP DUP1 DUP3 GT ISZERO PUSH2 0x95B JUMPI PUSH2 0x95A PUSH2 0x8FE JUMP JUMPDEST JUMPDEST SWAP3 SWAP2 POP POP JUMP JUMPDEST PUSH1 0x0 PUSH2 0x96C DUP3 PUSH2 0x74C JUMP JUMPDEST SWAP2 POP PUSH2 0x977 DUP4 PUSH2 0x74C JUMP JUMPDEST SWAP3 POP DUP3 DUP3 SUB SWAP1 POP DUP2 DUP2 GT ISZERO PUSH2 0x98F JUMPI PUSH2 0x98E PUSH2 0x8FE JUMP JUMPDEST JUMPDEST SWAP3 SWAP2 POP POP JUMP INVALID LOG2 PUSH5 0x6970667358 0x22 SLT KECCAK256 SWAP14 0xDF 0x2B 0xAD RETURNDATASIZE SWAP3 0x4F PC RETURNDATACOPY MSTORE 0xE5 REVERT 0x5C 0xD9 CALLDATASIZE 0xA6 BYTE PUSH16 0xF1F3FCB2BDE33D74BFC7938D181D6473 PUSH16 0x6C634300081000330000000000000000 "
				},
				"gasEstimates": {
					"creation": {
						"codeDepositCost": "501400",
						"executionCost": "537",
						"totalCost": "501937"
					},
					"external": {
						"dishQtyAdded(uint8)": "2788",
						"dishQtyGived(uint8)": "2722",
						"dishQuantity(uint8)": "2766",
						"fillDish(uint8,uint256)": "infinite",
						"getDish(uint8,uint256)": "infinite"
					}
				},
				"methodIdentifiers": {
					"dishQtyAdded(uint8)": "fa66c1ba",
					"dishQtyGived(uint8)": "ad940f00",
					"dishQuantity(uint8)": "c79cf758",
					"fillDish(uint8,uint256)": "8d65df2a",
					"getDish(uint8,uint256)": "c332c3be"
				}
			},
			"storageLayout": {
				"storage": [
					{
						"astId": 19,
						"contract": "exercices/rush/Distributeur.sol:Distributeur",
						"label": "dishQuantity",
						"offset": 0,
						"slot": "0",
						"type": "t_mapping(t_enum(Dish)14,t_uint256)"
					},
					{
						"astId": 24,
						"contract": "exercices/rush/Distributeur.sol:Distributeur",
						"label": "dishQtyGived",
						"offset": 0,
						"slot": "1",
						"type": "t_mapping(t_enum(Dish)14,t_uint256)"
					},
					{
						"astId": 29,
						"contract": "exercices/rush/Distributeur.sol:Distributeur",
						"label": "dishQtyAdded",
						"offset": 0,
						"slot": "2",
						"type": "t_mapping(t_enum(Dish)14,t_uint256)"
					}
				],
				"types": {
					"t_enum(Dish)14": {
						"encoding": "inplace",
						"label": "enum Distributeur.Dish",
						"numberOfBytes": "1"
					},
					"t_mapping(t_enum(Dish)14,t_uint256)": {
						"encoding": "mapping",
						"key": "t_enum(Dish)14",
						"label": "mapping(enum Distributeur.Dish => uint256)",
						"numberOfBytes": "32",
						"value": "t_uint256"
					},
					"t_uint256": {
						"encoding": "inplace",
						"label": "uint256",
						"numberOfBytes": "32"
					}
				}
			},
			"userdoc": {
				"kind": "user",
				"methods": {},
				"version": 1
			}
		}
	}
}